{"contracts/TokenSale.sol":{"TokenSale":{"abi":[{"inputs":[{"internalType":"address","name":"tokenAddress","type":"address"}],"stateMutability":"nonpayable","type":"constructor"},{"inputs":[{"internalType":"address","name":"owner","type":"address"}],"name":"OwnableInvalidOwner","type":"error"},{"inputs":[{"internalType":"address","name":"account","type":"address"}],"name":"OwnableUnauthorizedAccount","type":"error"},{"inputs":[],"name":"ReentrancyGuardReentrantCall","type":"error"},{"anonymous":false,"inputs":[{"indexed":true,"internalType":"address","name":"previousOwner","type":"address"},{"indexed":true,"internalType":"address","name":"newOwner","type":"address"}],"name":"OwnershipTransferred","type":"event"},{"anonymous":false,"inputs":[{"indexed":false,"internalType":"uint256","name":"totalSoldWholeTokens","type":"uint256"},{"indexed":false,"internalType":"uint256","name":"time","type":"uint256"}],"name":"SaleEnded","type":"event"},{"anonymous":false,"inputs":[{"indexed":true,"internalType":"address","name":"buyer","type":"address"},{"indexed":false,"internalType":"uint256","name":"amountOfWholeTokens","type":"uint256"},{"indexed":false,"internalType":"uint256","name":"cost","type":"uint256"}],"name":"TokensPurchased","type":"event"},{"inputs":[],"name":"FIRST_TIER_PERCENTAGE","outputs":[{"internalType":"uint256","name":"","type":"uint256"}],"stateMutability":"view","type":"function"},{"inputs":[],"name":"TOTAL_SALE_PERCENTAGE","outputs":[{"internalType":"uint256","name":"","type":"uint256"}],"stateMutability":"view","type":"function"},{"inputs":[{"internalType":"uint256","name":"numberOfWholeTokens","type":"uint256"}],"name":"buyTokens","outputs":[],"stateMutability":"payable","type":"function"},{"inputs":[],"name":"endSale","outputs":[],"stateMutability":"nonpayable","type":"function"},{"inputs":[],"name":"firstTierLimit","outputs":[{"internalType":"uint256","name":"","type":"uint256"}],"stateMutability":"view","type":"function"},{"inputs":[],"name":"firstTierPrice","outputs":[{"internalType":"uint256","name":"","type":"uint256"}],"stateMutability":"view","type":"function"},{"inputs":[{"internalType":"uint256","name":"numberOfWholeTokens","type":"uint256"}],"name":"getCurrentPrice","outputs":[{"internalType":"uint256","name":"","type":"uint256"}],"stateMutability":"view","type":"function"},{"inputs":[],"name":"initializeSale","outputs":[],"stateMutability":"nonpayable","type":"function"},{"inputs":[],"name":"owner","outputs":[{"internalType":"address","name":"","type":"address"}],"stateMutability":"view","type":"function"},{"inputs":[],"name":"renounceOwnership","outputs":[],"stateMutability":"nonpayable","type":"function"},{"inputs":[],"name":"saleEndTime","outputs":[{"internalType":"uint256","name":"","type":"uint256"}],"stateMutability":"view","type":"function"},{"inputs":[],"name":"secondTierPrice","outputs":[{"internalType":"uint256","name":"","type":"uint256"}],"stateMutability":"view","type":"function"},{"inputs":[],"name":"token","outputs":[{"internalType":"contract Group2","name":"","type":"address"}],"stateMutability":"view","type":"function"},{"inputs":[],"name":"tokensSold","outputs":[{"internalType":"uint256","name":"","type":"uint256"}],"stateMutability":"view","type":"function"},{"inputs":[],"name":"totalTokensForSale","outputs":[{"internalType":"uint256","name":"","type":"uint256"}],"stateMutability":"view","type":"function"},{"inputs":[{"internalType":"address","name":"newOwner","type":"address"}],"name":"transferOwnership","outputs":[],"stateMutability":"nonpayable","type":"function"},{"inputs":[],"name":"withdrawETH","outputs":[],"stateMutability":"nonpayable","type":"function"},{"stateMutability":"payable","type":"receive"}],"evm":{"bytecode":{"linkReferences":{},"object":"6080604052674563918244f40000600555678ac7230489e8000060065534801561002857600080fd5b506040516120ec3803806120ec833981810160405281019061004a9190610426565b33600073ffffffffffffffffffffffffffffffffffffffff168173ffffffffffffffffffffffffffffffffffffffff16036100bd5760006040517f1e4fbdf70000000000000000000000000000000000000000000000000000000081526004016100b49190610462565b60405180910390fd5b6100cc816102ff60201b60201c565b506001808190555080600260006101000a81548173ffffffffffffffffffffffffffffffffffffffff021916908373ffffffffffffffffffffffffffffffffffffffff16021790555062278d004261012491906104b6565b6004819055506000600260009054906101000a900473ffffffffffffffffffffffffffffffffffffffff1673ffffffffffffffffffffffffffffffffffffffff1663313ce5676040518163ffffffff1660e01b8152600401602060405180830381865afa158015610199573d6000803e3d6000fd5b505050506040513d601f19601f820116820180604052508101906101bd9190610523565b60ff1690506000600260009054906101000a900473ffffffffffffffffffffffffffffffffffffffff1673ffffffffffffffffffffffffffffffffffffffff166318160ddd6040518163ffffffff1660e01b8152600401602060405180830381865afa158015610231573d6000803e3d6000fd5b505050506040513d601f19601f82011682018060405250810190610255919061057c565b9050600082600a61026691906106dc565b826102719190610756565b905060646032826102829190610787565b61028c9190610756565b60078190555060646019826102a19190610787565b6102ab9190610756565b6008819055506000600754116102f6576040517f08c379a00000000000000000000000000000000000000000000000000000000081526004016102ed9061084c565b60405180910390fd5b5050505061086c565b60008060009054906101000a900473ffffffffffffffffffffffffffffffffffffffff169050816000806101000a81548173ffffffffffffffffffffffffffffffffffffffff021916908373ffffffffffffffffffffffffffffffffffffffff1602179055508173ffffffffffffffffffffffffffffffffffffffff168173ffffffffffffffffffffffffffffffffffffffff167f8be0079c531659141344cd1fd0a4f28419497f9722a3daafe3b4186f6b6457e060405160405180910390a35050565b600080fd5b600073ffffffffffffffffffffffffffffffffffffffff82169050919050565b60006103f3826103c8565b9050919050565b610403816103e8565b811461040e57600080fd5b50565b600081519050610420816103fa565b92915050565b60006020828403121561043c5761043b6103c3565b5b600061044a84828501610411565b91505092915050565b61045c816103e8565b82525050565b60006020820190506104776000830184610453565b92915050565b6000819050919050565b7f4e487b7100000000000000000000000000000000000000000000000000000000600052601160045260246000fd5b60006104c18261047d565b91506104cc8361047d565b92508282019050808211156104e4576104e3610487565b5b92915050565b600060ff82169050919050565b610500816104ea565b811461050b57600080fd5b50565b60008151905061051d816104f7565b92915050565b600060208284031215610539576105386103c3565b5b60006105478482850161050e565b91505092915050565b6105598161047d565b811461056457600080fd5b50565b60008151905061057681610550565b92915050565b600060208284031215610592576105916103c3565b5b60006105a084828501610567565b91505092915050565b60008160011c9050919050565b6000808291508390505b6001851115610600578086048111156105dc576105db610487565b5b60018516156105eb5780820291505b80810290506105f9856105a9565b94506105c0565b94509492505050565b60008261061957600190506106d5565b8161062757600090506106d5565b816001811461063d576002811461064757610676565b60019150506106d5565b60ff84111561065957610658610487565b5b8360020a9150848211156106705761066f610487565b5b506106d5565b5060208310610133831016604e8410600b84101617156106ab5782820a9050838111156106a6576106a5610487565b5b6106d5565b6106b884848460016105b6565b925090508184048111156106cf576106ce610487565b5b81810290505b9392505050565b60006106e78261047d565b91506106f28361047d565b925061071f7fffffffffffffffffffffffffffffffffffffffffffffffffffffffffffffffff8484610609565b905092915050565b7f4e487b7100000000000000000000000000000000000000000000000000000000600052601260045260246000fd5b60006107618261047d565b915061076c8361047d565b92508261077c5761077b610727565b5b828204905092915050565b60006107928261047d565b915061079d8361047d565b92508282026107ab8161047d565b915082820484148315176107c2576107c1610487565b5b5092915050565b600082825260208201905092915050565b7f546f6b656e53616c653a204e6f20746f6b656e7320617661696c61626c65206660008201527f6f722073616c6500000000000000000000000000000000000000000000000000602082015250565b60006108366027836107c9565b9150610841826107da565b604082019050919050565b6000602082019050818103600083015261086581610829565b9050919050565b6118718061087b6000396000f3fe6080604052600436106101025760003560e01c8063715018a611610095578063c55d0f5611610064578063c55d0f56146102c7578063e086e5ec14610304578063ed338ff11461031b578063f2fde38b14610346578063fc0c546a1461036f57610109565b8063715018a61461022f5780638da5cb5b1461024657806391516cce14610271578063b3e7b8511461029c57610109565b80634efb991b116100d15780634efb991b14610183578063518ab2a8146101ae5780635fa17324146101d957806360219c7b1461020457610109565b80632c7b78b61461010e5780633610724e14610125578063380d831b146101415780634a3e9f201461015857610109565b3661010957005b600080fd5b34801561011a57600080fd5b5061012361039a565b005b61013f600480360381019061013a9190610f16565b61052b565b005b34801561014d57600080fd5b506101566108d8565b005b34801561016457600080fd5b5061016d610ac4565b60405161017a9190610f52565b60405180910390f35b34801561018f57600080fd5b50610198610ac9565b6040516101a59190610f52565b60405180910390f35b3480156101ba57600080fd5b506101c3610acf565b6040516101d09190610f52565b60405180910390f35b3480156101e557600080fd5b506101ee610ad5565b6040516101fb9190610f52565b60405180910390f35b34801561021057600080fd5b50610219610adb565b6040516102269190610f52565b60405180910390f35b34801561023b57600080fd5b50610244610ae1565b005b34801561025257600080fd5b5061025b610af5565b6040516102689190610fae565b60405180910390f35b34801561027d57600080fd5b50610286610b1e565b6040516102939190610f52565b60405180910390f35b3480156102a857600080fd5b506102b1610b24565b6040516102be9190610f52565b60405180910390f35b3480156102d357600080fd5b506102ee60048036038101906102e99190610f16565b610b29565b6040516102fb9190610f52565b60405180910390f35b34801561031057600080fd5b50610319610c1f565b005b34801561032757600080fd5b50610330610c87565b60405161033d9190610f52565b60405180910390f35b34801561035257600080fd5b5061036d60048036038101906103689190610ff5565b610c8d565b005b34801561037b57600080fd5b50610384610d13565b6040516103919190611081565b60405180910390f35b6103a2610d39565b600260009054906101000a900473ffffffffffffffffffffffffffffffffffffffff1673ffffffffffffffffffffffffffffffffffffffff1663313ce5676040518163ffffffff1660e01b8152600401602060405180830381865afa15801561040f573d6000803e3d6000fd5b505050506040513d601f19601f8201168201806040525081019061043391906110d5565b600a61043f9190611264565b60075461044c91906112af565b600260009054906101000a900473ffffffffffffffffffffffffffffffffffffffff1673ffffffffffffffffffffffffffffffffffffffff166370a08231306040518263ffffffff1660e01b81526004016104a79190610fae565b602060405180830381865afa1580156104c4573d6000803e3d6000fd5b505050506040513d601f19601f820116820180604052508101906104e89190611306565b1015610529576040517f08c379a0000000000000000000000000000000000000000000000000000000008152600401610520906113b6565b60405180910390fd5b565b600454421061056f576040517f08c379a000000000000000000000000000000000000000000000000000000000815260040161056690611422565b60405180910390fd5b600754600354106105b5576040517f08c379a00000000000000000000000000000000000000000000000000000000081526004016105ac906114b4565b60405180910390fd5b6105bd610dc0565b60008111610600576040517f08c379a00000000000000000000000000000000000000000000000000000000081526004016105f790611546565b60405180910390fd5b600754816003546106119190611566565b1115610652576040517f08c379a00000000000000000000000000000000000000000000000000000000081526004016106499061160c565b60405180910390fd5b60008060009050600060085460035410156106ab57600854846003546106789190611566565b11610685578391506106a6565b600354600854610695919061162c565b915081846106a3919061162c565b90505b6106af565b8390505b600654816106bd91906112af565b600554836106cb91906112af565b6106d59190611566565b9250823414610719576040517f08c379a0000000000000000000000000000000000000000000000000000000008152600401610710906116d2565b60405180910390fd5b836003600082825461072b9190611566565b92505081905550600260009054906101000a900473ffffffffffffffffffffffffffffffffffffffff1673ffffffffffffffffffffffffffffffffffffffff1663a9059cbb33600260009054906101000a900473ffffffffffffffffffffffffffffffffffffffff1673ffffffffffffffffffffffffffffffffffffffff1663313ce5676040518163ffffffff1660e01b8152600401602060405180830381865afa1580156107de573d6000803e3d6000fd5b505050506040513d601f19601f8201168201806040525081019061080291906110d5565b600a61080e9190611264565b8761081991906112af565b6040518363ffffffff1660e01b81526004016108369291906116f2565b6020604051808303816000875af1158015610855573d6000803e3d6000fd5b505050506040513d601f19601f820116820180604052508101906108799190611753565b503373ffffffffffffffffffffffffffffffffffffffff167f8fafebcaf9d154343dad25669bfa277f4fbacd7ac6b0c4fed522580e040a0f3385346040516108c2929190611780565b60405180910390a25050506108d5610e06565b50565b6108e0610d39565b600454421015806108f5575060075460035410155b610934576040517f08c379a000000000000000000000000000000000000000000000000000000000815260040161092b9061181b565b60405180910390fd5b6000600260009054906101000a900473ffffffffffffffffffffffffffffffffffffffff1673ffffffffffffffffffffffffffffffffffffffff166370a08231306040518263ffffffff1660e01b81526004016109919190610fae565b602060405180830381865afa1580156109ae573d6000803e3d6000fd5b505050506040513d601f19601f820116820180604052508101906109d29190611306565b90506000811115610a8657600260009054906101000a900473ffffffffffffffffffffffffffffffffffffffff1673ffffffffffffffffffffffffffffffffffffffff1663a9059cbb610a23610af5565b836040518363ffffffff1660e01b8152600401610a419291906116f2565b6020604051808303816000875af1158015610a60573d6000803e3d6000fd5b505050506040513d601f19601f82011682018060405250810190610a849190611753565b505b7fce4010416b0dec196298b584ceebdd43ecf89e6c03007517c3a7f4403db6c21260035442604051610ab9929190611780565b60405180910390a150565b601981565b60085481565b60035481565b60055481565b60075481565b610ae9610d39565b610af36000610e0f565b565b60008060009054906101000a900473ffffffffffffffffffffffffffffffffffffffff16905090565b60065481565b603281565b600060045442101580610b40575060075460035410155b15610b4e5760009050610c1a565b60075482600354610b5f9190611566565b1115610b8d577fffffffffffffffffffffffffffffffffffffffffffffffffffffffffffffffff9050610c1a565b600080600090506000806003549050600854811015610be6576008548682610bb59190611566565b11610bc257859250610be1565b80600854610bd0919061162c565b92508286610bde919061162c565b91505b610bea565b8591505b60065482610bf891906112af565b60055484610c0691906112af565b610c109190611566565b9350839450505050505b919050565b610c27610d39565b610c2f610dc0565b610c37610af5565b73ffffffffffffffffffffffffffffffffffffffff166108fc479081150290604051600060405180830381858888f19350505050158015610c7c573d6000803e3d6000fd5b50610c85610e06565b565b60045481565b610c95610d39565b600073ffffffffffffffffffffffffffffffffffffffff168173ffffffffffffffffffffffffffffffffffffffff1603610d075760006040517f1e4fbdf7000000000000000000000000000000000000000000000000000000008152600401610cfe9190610fae565b60405180910390fd5b610d1081610e0f565b50565b600260009054906101000a900473ffffffffffffffffffffffffffffffffffffffff1681565b610d41610ed3565b73ffffffffffffffffffffffffffffffffffffffff16610d5f610af5565b73ffffffffffffffffffffffffffffffffffffffff1614610dbe57610d82610ed3565b6040517f118cdaa7000000000000000000000000000000000000000000000000000000008152600401610db59190610fae565b60405180910390fd5b565b600260015403610dfc576040517f3ee5aeb500000000000000000000000000000000000000000000000000000000815260040160405180910390fd5b6002600181905550565b60018081905550565b60008060009054906101000a900473ffffffffffffffffffffffffffffffffffffffff169050816000806101000a81548173ffffffffffffffffffffffffffffffffffffffff021916908373ffffffffffffffffffffffffffffffffffffffff1602179055508173ffffffffffffffffffffffffffffffffffffffff168173ffffffffffffffffffffffffffffffffffffffff167f8be0079c531659141344cd1fd0a4f28419497f9722a3daafe3b4186f6b6457e060405160405180910390a35050565b600033905090565b600080fd5b6000819050919050565b610ef381610ee0565b8114610efe57600080fd5b50565b600081359050610f1081610eea565b92915050565b600060208284031215610f2c57610f2b610edb565b5b6000610f3a84828501610f01565b91505092915050565b610f4c81610ee0565b82525050565b6000602082019050610f676000830184610f43565b92915050565b600073ffffffffffffffffffffffffffffffffffffffff82169050919050565b6000610f9882610f6d565b9050919050565b610fa881610f8d565b82525050565b6000602082019050610fc36000830184610f9f565b92915050565b610fd281610f8d565b8114610fdd57600080fd5b50565b600081359050610fef81610fc9565b92915050565b60006020828403121561100b5761100a610edb565b5b600061101984828501610fe0565b91505092915050565b6000819050919050565b600061104761104261103d84610f6d565b611022565b610f6d565b9050919050565b60006110598261102c565b9050919050565b600061106b8261104e565b9050919050565b61107b81611060565b82525050565b60006020820190506110966000830184611072565b92915050565b600060ff82169050919050565b6110b28161109c565b81146110bd57600080fd5b50565b6000815190506110cf816110a9565b92915050565b6000602082840312156110eb576110ea610edb565b5b60006110f9848285016110c0565b91505092915050565b7f4e487b7100000000000000000000000000000000000000000000000000000000600052601160045260246000fd5b60008160011c9050919050565b6000808291508390505b60018511156111885780860481111561116457611163611102565b5b60018516156111735780820291505b808102905061118185611131565b9450611148565b94509492505050565b6000826111a1576001905061125d565b816111af576000905061125d565b81600181146111c557600281146111cf576111fe565b600191505061125d565b60ff8411156111e1576111e0611102565b5b8360020a9150848211156111f8576111f7611102565b5b5061125d565b5060208310610133831016604e8410600b84101617156112335782820a90508381111561122e5761122d611102565b5b61125d565b611240848484600161113e565b9250905081840481111561125757611256611102565b5b81810290505b9392505050565b600061126f82610ee0565b915061127a8361109c565b92506112a77fffffffffffffffffffffffffffffffffffffffffffffffffffffffffffffffff8484611191565b905092915050565b60006112ba82610ee0565b91506112c583610ee0565b92508282026112d381610ee0565b915082820484148315176112ea576112e9611102565b5b5092915050565b60008151905061130081610eea565b92915050565b60006020828403121561131c5761131b610edb565b5b600061132a848285016112f1565b91505092915050565b600082825260208201905092915050565b7f546f6b656e53616c653a20496e73756666696369656e7420746f6b656e20626160008201527f6c616e636520696e2073616c6520636f6e747261637400000000000000000000602082015250565b60006113a0603683611333565b91506113ab82611344565b604082019050919050565b600060208201905081810360008301526113cf81611393565b9050919050565b7f546f6b656e53616c653a2053616c652068617320656e64656400000000000000600082015250565b600061140c601983611333565b9150611417826113d6565b602082019050919050565b6000602082019050818103600083015261143b816113ff565b9050919050565b7f546f6b656e53616c653a20416c6c20746f6b656e7320666f722073616c65206860008201527f617665206265656e20736f6c6400000000000000000000000000000000000000602082015250565b600061149e602d83611333565b91506114a982611442565b604082019050919050565b600060208201905081810360008301526114cd81611491565b9050919050565b7f546f6b656e53616c653a204d75737420627579206174206c65617374206f6e6560008201527f20746f6b656e0000000000000000000000000000000000000000000000000000602082015250565b6000611530602683611333565b915061153b826114d4565b604082019050919050565b6000602082019050818103600083015261155f81611523565b9050919050565b600061157182610ee0565b915061157c83610ee0565b925082820190508082111561159457611593611102565b5b92915050565b7f546f6b656e53616c653a204e6f7420656e6f75676820746f6b656e73206c656660008201527f7420666f72207468697320707572636861736500000000000000000000000000602082015250565b60006115f6603383611333565b91506116018261159a565b604082019050919050565b60006020820190508181036000830152611625816115e9565b9050919050565b600061163782610ee0565b915061164283610ee0565b925082820390508181111561165a57611659611102565b5b92915050565b7f546f6b656e53616c653a20496e636f72726563742045544820616d6f756e742060008201527f73656e7400000000000000000000000000000000000000000000000000000000602082015250565b60006116bc602483611333565b91506116c782611660565b604082019050919050565b600060208201905081810360008301526116eb816116af565b9050919050565b60006040820190506117076000830185610f9f565b6117146020830184610f43565b9392505050565b60008115159050919050565b6117308161171b565b811461173b57600080fd5b50565b60008151905061174d81611727565b92915050565b60006020828403121561176957611768610edb565b5b60006117778482850161173e565b91505092915050565b60006040820190506117956000830185610f43565b6117a26020830184610f43565b9392505050565b7f546f6b656e53616c653a2053616c652063616e6e6f7420626520656e6465642060008201527f7965740000000000000000000000000000000000000000000000000000000000602082015250565b6000611805602383611333565b9150611810826117a9565b604082019050919050565b60006020820190508181036000830152611834816117f8565b905091905056fea2646970667358221220b62af2bfe526e3503652fd9101cbbeb27f5bc139c0042c114632387ceeea6bf864736f6c634300081a0033","opcodes":"PUSH1 0x80 PUSH1 0x40 MSTORE PUSH8 0x4563918244F40000 PUSH1 0x5 SSTORE PUSH8 0x8AC7230489E80000 PUSH1 0x6 SSTORE CALLVALUE DUP1 ISZERO PUSH2 0x28 JUMPI PUSH1 0x0 DUP1 REVERT JUMPDEST POP PUSH1 0x40 MLOAD PUSH2 0x20EC CODESIZE SUB DUP1 PUSH2 0x20EC DUP4 CODECOPY DUP2 DUP2 ADD PUSH1 0x40 MSTORE DUP2 ADD SWAP1 PUSH2 0x4A SWAP2 SWAP1 PUSH2 0x426 JUMP JUMPDEST CALLER PUSH1 0x0 PUSH20 0xFFFFFFFFFFFFFFFFFFFFFFFFFFFFFFFFFFFFFFFF AND DUP2 PUSH20 0xFFFFFFFFFFFFFFFFFFFFFFFFFFFFFFFFFFFFFFFF AND SUB PUSH2 0xBD JUMPI PUSH1 0x0 PUSH1 0x40 MLOAD PUSH32 0x1E4FBDF700000000000000000000000000000000000000000000000000000000 DUP2 MSTORE PUSH1 0x4 ADD PUSH2 0xB4 SWAP2 SWAP1 PUSH2 0x462 JUMP JUMPDEST PUSH1 0x40 MLOAD DUP1 SWAP2 SUB SWAP1 REVERT JUMPDEST PUSH2 0xCC DUP2 PUSH2 0x2FF PUSH1 0x20 SHL PUSH1 0x20 SHR JUMP JUMPDEST POP PUSH1 0x1 DUP1 DUP2 SWAP1 SSTORE POP DUP1 PUSH1 0x2 PUSH1 0x0 PUSH2 0x100 EXP DUP2 SLOAD DUP2 PUSH20 0xFFFFFFFFFFFFFFFFFFFFFFFFFFFFFFFFFFFFFFFF MUL NOT AND SWAP1 DUP4 PUSH20 0xFFFFFFFFFFFFFFFFFFFFFFFFFFFFFFFFFFFFFFFF AND MUL OR SWAP1 SSTORE POP PUSH3 0x278D00 TIMESTAMP PUSH2 0x124 SWAP2 SWAP1 PUSH2 0x4B6 JUMP JUMPDEST PUSH1 0x4 DUP2 SWAP1 SSTORE POP PUSH1 0x0 PUSH1 0x2 PUSH1 0x0 SWAP1 SLOAD SWAP1 PUSH2 0x100 EXP SWAP1 DIV PUSH20 0xFFFFFFFFFFFFFFFFFFFFFFFFFFFFFFFFFFFFFFFF AND PUSH20 0xFFFFFFFFFFFFFFFFFFFFFFFFFFFFFFFFFFFFFFFF AND PUSH4 0x313CE567 PUSH1 0x40 MLOAD DUP2 PUSH4 0xFFFFFFFF AND PUSH1 0xE0 SHL DUP2 MSTORE PUSH1 0x4 ADD PUSH1 0x20 PUSH1 0x40 MLOAD DUP1 DUP4 SUB DUP2 DUP7 GAS STATICCALL ISZERO DUP1 ISZERO PUSH2 0x199 JUMPI RETURNDATASIZE PUSH1 0x0 DUP1 RETURNDATACOPY RETURNDATASIZE PUSH1 0x0 REVERT JUMPDEST POP POP POP POP PUSH1 0x40 MLOAD RETURNDATASIZE PUSH1 0x1F NOT PUSH1 0x1F DUP3 ADD AND DUP3 ADD DUP1 PUSH1 0x40 MSTORE POP DUP2 ADD SWAP1 PUSH2 0x1BD SWAP2 SWAP1 PUSH2 0x523 JUMP JUMPDEST PUSH1 0xFF AND SWAP1 POP PUSH1 0x0 PUSH1 0x2 PUSH1 0x0 SWAP1 SLOAD SWAP1 PUSH2 0x100 EXP SWAP1 DIV PUSH20 0xFFFFFFFFFFFFFFFFFFFFFFFFFFFFFFFFFFFFFFFF AND PUSH20 0xFFFFFFFFFFFFFFFFFFFFFFFFFFFFFFFFFFFFFFFF AND PUSH4 0x18160DDD PUSH1 0x40 MLOAD DUP2 PUSH4 0xFFFFFFFF AND PUSH1 0xE0 SHL DUP2 MSTORE PUSH1 0x4 ADD PUSH1 0x20 PUSH1 0x40 MLOAD DUP1 DUP4 SUB DUP2 DUP7 GAS STATICCALL ISZERO DUP1 ISZERO PUSH2 0x231 JUMPI RETURNDATASIZE PUSH1 0x0 DUP1 RETURNDATACOPY RETURNDATASIZE PUSH1 0x0 REVERT JUMPDEST POP POP POP POP PUSH1 0x40 MLOAD RETURNDATASIZE PUSH1 0x1F NOT PUSH1 0x1F DUP3 ADD AND DUP3 ADD DUP1 PUSH1 0x40 MSTORE POP DUP2 ADD SWAP1 PUSH2 0x255 SWAP2 SWAP1 PUSH2 0x57C JUMP JUMPDEST SWAP1 POP PUSH1 0x0 DUP3 PUSH1 0xA PUSH2 0x266 SWAP2 SWAP1 PUSH2 0x6DC JUMP JUMPDEST DUP3 PUSH2 0x271 SWAP2 SWAP1 PUSH2 0x756 JUMP JUMPDEST SWAP1 POP PUSH1 0x64 PUSH1 0x32 DUP3 PUSH2 0x282 SWAP2 SWAP1 PUSH2 0x787 JUMP JUMPDEST PUSH2 0x28C SWAP2 SWAP1 PUSH2 0x756 JUMP JUMPDEST PUSH1 0x7 DUP2 SWAP1 SSTORE POP PUSH1 0x64 PUSH1 0x19 DUP3 PUSH2 0x2A1 SWAP2 SWAP1 PUSH2 0x787 JUMP JUMPDEST PUSH2 0x2AB SWAP2 SWAP1 PUSH2 0x756 JUMP JUMPDEST PUSH1 0x8 DUP2 SWAP1 SSTORE POP PUSH1 0x0 PUSH1 0x7 SLOAD GT PUSH2 0x2F6 JUMPI PUSH1 0x40 MLOAD PUSH32 0x8C379A000000000000000000000000000000000000000000000000000000000 DUP2 MSTORE PUSH1 0x4 ADD PUSH2 0x2ED SWAP1 PUSH2 0x84C JUMP JUMPDEST PUSH1 0x40 MLOAD DUP1 SWAP2 SUB SWAP1 REVERT JUMPDEST POP POP POP POP PUSH2 0x86C JUMP JUMPDEST PUSH1 0x0 DUP1 PUSH1 0x0 SWAP1 SLOAD SWAP1 PUSH2 0x100 EXP SWAP1 DIV PUSH20 0xFFFFFFFFFFFFFFFFFFFFFFFFFFFFFFFFFFFFFFFF AND SWAP1 POP DUP2 PUSH1 0x0 DUP1 PUSH2 0x100 EXP DUP2 SLOAD DUP2 PUSH20 0xFFFFFFFFFFFFFFFFFFFFFFFFFFFFFFFFFFFFFFFF MUL NOT AND SWAP1 DUP4 PUSH20 0xFFFFFFFFFFFFFFFFFFFFFFFFFFFFFFFFFFFFFFFF AND MUL OR SWAP1 SSTORE POP DUP2 PUSH20 0xFFFFFFFFFFFFFFFFFFFFFFFFFFFFFFFFFFFFFFFF AND DUP2 PUSH20 0xFFFFFFFFFFFFFFFFFFFFFFFFFFFFFFFFFFFFFFFF AND PUSH32 0x8BE0079C531659141344CD1FD0A4F28419497F9722A3DAAFE3B4186F6B6457E0 PUSH1 0x40 MLOAD PUSH1 0x40 MLOAD DUP1 SWAP2 SUB SWAP1 LOG3 POP POP JUMP JUMPDEST PUSH1 0x0 DUP1 REVERT JUMPDEST PUSH1 0x0 PUSH20 0xFFFFFFFFFFFFFFFFFFFFFFFFFFFFFFFFFFFFFFFF DUP3 AND SWAP1 POP SWAP2 SWAP1 POP JUMP JUMPDEST PUSH1 0x0 PUSH2 0x3F3 DUP3 PUSH2 0x3C8 JUMP JUMPDEST SWAP1 POP SWAP2 SWAP1 POP JUMP JUMPDEST PUSH2 0x403 DUP2 PUSH2 0x3E8 JUMP JUMPDEST DUP2 EQ PUSH2 0x40E JUMPI PUSH1 0x0 DUP1 REVERT JUMPDEST POP JUMP JUMPDEST PUSH1 0x0 DUP2 MLOAD SWAP1 POP PUSH2 0x420 DUP2 PUSH2 0x3FA JUMP JUMPDEST SWAP3 SWAP2 POP POP JUMP JUMPDEST PUSH1 0x0 PUSH1 0x20 DUP3 DUP5 SUB SLT ISZERO PUSH2 0x43C JUMPI PUSH2 0x43B PUSH2 0x3C3 JUMP JUMPDEST JUMPDEST PUSH1 0x0 PUSH2 0x44A DUP5 DUP3 DUP6 ADD PUSH2 0x411 JUMP JUMPDEST SWAP2 POP POP SWAP3 SWAP2 POP POP JUMP JUMPDEST PUSH2 0x45C DUP2 PUSH2 0x3E8 JUMP JUMPDEST DUP3 MSTORE POP POP JUMP JUMPDEST PUSH1 0x0 PUSH1 0x20 DUP3 ADD SWAP1 POP PUSH2 0x477 PUSH1 0x0 DUP4 ADD DUP5 PUSH2 0x453 JUMP JUMPDEST SWAP3 SWAP2 POP POP JUMP JUMPDEST PUSH1 0x0 DUP2 SWAP1 POP SWAP2 SWAP1 POP JUMP JUMPDEST PUSH32 0x4E487B7100000000000000000000000000000000000000000000000000000000 PUSH1 0x0 MSTORE PUSH1 0x11 PUSH1 0x4 MSTORE PUSH1 0x24 PUSH1 0x0 REVERT JUMPDEST PUSH1 0x0 PUSH2 0x4C1 DUP3 PUSH2 0x47D JUMP JUMPDEST SWAP2 POP PUSH2 0x4CC DUP4 PUSH2 0x47D JUMP JUMPDEST SWAP3 POP DUP3 DUP3 ADD SWAP1 POP DUP1 DUP3 GT ISZERO PUSH2 0x4E4 JUMPI PUSH2 0x4E3 PUSH2 0x487 JUMP JUMPDEST JUMPDEST SWAP3 SWAP2 POP POP JUMP JUMPDEST PUSH1 0x0 PUSH1 0xFF DUP3 AND SWAP1 POP SWAP2 SWAP1 POP JUMP JUMPDEST PUSH2 0x500 DUP2 PUSH2 0x4EA JUMP JUMPDEST DUP2 EQ PUSH2 0x50B JUMPI PUSH1 0x0 DUP1 REVERT JUMPDEST POP JUMP JUMPDEST PUSH1 0x0 DUP2 MLOAD SWAP1 POP PUSH2 0x51D DUP2 PUSH2 0x4F7 JUMP JUMPDEST SWAP3 SWAP2 POP POP JUMP JUMPDEST PUSH1 0x0 PUSH1 0x20 DUP3 DUP5 SUB SLT ISZERO PUSH2 0x539 JUMPI PUSH2 0x538 PUSH2 0x3C3 JUMP JUMPDEST JUMPDEST PUSH1 0x0 PUSH2 0x547 DUP5 DUP3 DUP6 ADD PUSH2 0x50E JUMP JUMPDEST SWAP2 POP POP SWAP3 SWAP2 POP POP JUMP JUMPDEST PUSH2 0x559 DUP2 PUSH2 0x47D JUMP JUMPDEST DUP2 EQ PUSH2 0x564 JUMPI PUSH1 0x0 DUP1 REVERT JUMPDEST POP JUMP JUMPDEST PUSH1 0x0 DUP2 MLOAD SWAP1 POP PUSH2 0x576 DUP2 PUSH2 0x550 JUMP JUMPDEST SWAP3 SWAP2 POP POP JUMP JUMPDEST PUSH1 0x0 PUSH1 0x20 DUP3 DUP5 SUB SLT ISZERO PUSH2 0x592 JUMPI PUSH2 0x591 PUSH2 0x3C3 JUMP JUMPDEST JUMPDEST PUSH1 0x0 PUSH2 0x5A0 DUP5 DUP3 DUP6 ADD PUSH2 0x567 JUMP JUMPDEST SWAP2 POP POP SWAP3 SWAP2 POP POP JUMP JUMPDEST PUSH1 0x0 DUP2 PUSH1 0x1 SHR SWAP1 POP SWAP2 SWAP1 POP JUMP JUMPDEST PUSH1 0x0 DUP1 DUP3 SWAP2 POP DUP4 SWAP1 POP JUMPDEST PUSH1 0x1 DUP6 GT ISZERO PUSH2 0x600 JUMPI DUP1 DUP7 DIV DUP2 GT ISZERO PUSH2 0x5DC JUMPI PUSH2 0x5DB PUSH2 0x487 JUMP JUMPDEST JUMPDEST PUSH1 0x1 DUP6 AND ISZERO PUSH2 0x5EB JUMPI DUP1 DUP3 MUL SWAP2 POP JUMPDEST DUP1 DUP2 MUL SWAP1 POP PUSH2 0x5F9 DUP6 PUSH2 0x5A9 JUMP JUMPDEST SWAP5 POP PUSH2 0x5C0 JUMP JUMPDEST SWAP5 POP SWAP5 SWAP3 POP POP POP JUMP JUMPDEST PUSH1 0x0 DUP3 PUSH2 0x619 JUMPI PUSH1 0x1 SWAP1 POP PUSH2 0x6D5 JUMP JUMPDEST DUP2 PUSH2 0x627 JUMPI PUSH1 0x0 SWAP1 POP PUSH2 0x6D5 JUMP JUMPDEST DUP2 PUSH1 0x1 DUP2 EQ PUSH2 0x63D JUMPI PUSH1 0x2 DUP2 EQ PUSH2 0x647 JUMPI PUSH2 0x676 JUMP JUMPDEST PUSH1 0x1 SWAP2 POP POP PUSH2 0x6D5 JUMP JUMPDEST PUSH1 0xFF DUP5 GT ISZERO PUSH2 0x659 JUMPI PUSH2 0x658 PUSH2 0x487 JUMP JUMPDEST JUMPDEST DUP4 PUSH1 0x2 EXP SWAP2 POP DUP5 DUP3 GT ISZERO PUSH2 0x670 JUMPI PUSH2 0x66F PUSH2 0x487 JUMP JUMPDEST JUMPDEST POP PUSH2 0x6D5 JUMP JUMPDEST POP PUSH1 0x20 DUP4 LT PUSH2 0x133 DUP4 LT AND PUSH1 0x4E DUP5 LT PUSH1 0xB DUP5 LT AND OR ISZERO PUSH2 0x6AB JUMPI DUP3 DUP3 EXP SWAP1 POP DUP4 DUP2 GT ISZERO PUSH2 0x6A6 JUMPI PUSH2 0x6A5 PUSH2 0x487 JUMP JUMPDEST JUMPDEST PUSH2 0x6D5 JUMP JUMPDEST PUSH2 0x6B8 DUP5 DUP5 DUP5 PUSH1 0x1 PUSH2 0x5B6 JUMP JUMPDEST SWAP3 POP SWAP1 POP DUP2 DUP5 DIV DUP2 GT ISZERO PUSH2 0x6CF JUMPI PUSH2 0x6CE PUSH2 0x487 JUMP JUMPDEST JUMPDEST DUP2 DUP2 MUL SWAP1 POP JUMPDEST SWAP4 SWAP3 POP POP POP JUMP JUMPDEST PUSH1 0x0 PUSH2 0x6E7 DUP3 PUSH2 0x47D JUMP JUMPDEST SWAP2 POP PUSH2 0x6F2 DUP4 PUSH2 0x47D JUMP JUMPDEST SWAP3 POP PUSH2 0x71F PUSH32 0xFFFFFFFFFFFFFFFFFFFFFFFFFFFFFFFFFFFFFFFFFFFFFFFFFFFFFFFFFFFFFFFF DUP5 DUP5 PUSH2 0x609 JUMP JUMPDEST SWAP1 POP SWAP3 SWAP2 POP POP JUMP JUMPDEST PUSH32 0x4E487B7100000000000000000000000000000000000000000000000000000000 PUSH1 0x0 MSTORE PUSH1 0x12 PUSH1 0x4 MSTORE PUSH1 0x24 PUSH1 0x0 REVERT JUMPDEST PUSH1 0x0 PUSH2 0x761 DUP3 PUSH2 0x47D JUMP JUMPDEST SWAP2 POP PUSH2 0x76C DUP4 PUSH2 0x47D JUMP JUMPDEST SWAP3 POP DUP3 PUSH2 0x77C JUMPI PUSH2 0x77B PUSH2 0x727 JUMP JUMPDEST JUMPDEST DUP3 DUP3 DIV SWAP1 POP SWAP3 SWAP2 POP POP JUMP JUMPDEST PUSH1 0x0 PUSH2 0x792 DUP3 PUSH2 0x47D JUMP JUMPDEST SWAP2 POP PUSH2 0x79D DUP4 PUSH2 0x47D JUMP JUMPDEST SWAP3 POP DUP3 DUP3 MUL PUSH2 0x7AB DUP2 PUSH2 0x47D JUMP JUMPDEST SWAP2 POP DUP3 DUP3 DIV DUP5 EQ DUP4 ISZERO OR PUSH2 0x7C2 JUMPI PUSH2 0x7C1 PUSH2 0x487 JUMP JUMPDEST JUMPDEST POP SWAP3 SWAP2 POP POP JUMP JUMPDEST PUSH1 0x0 DUP3 DUP3 MSTORE PUSH1 0x20 DUP3 ADD SWAP1 POP SWAP3 SWAP2 POP POP JUMP JUMPDEST PUSH32 0x546F6B656E53616C653A204E6F20746F6B656E7320617661696C61626C652066 PUSH1 0x0 DUP3 ADD MSTORE PUSH32 0x6F722073616C6500000000000000000000000000000000000000000000000000 PUSH1 0x20 DUP3 ADD MSTORE POP JUMP JUMPDEST PUSH1 0x0 PUSH2 0x836 PUSH1 0x27 DUP4 PUSH2 0x7C9 JUMP JUMPDEST SWAP2 POP PUSH2 0x841 DUP3 PUSH2 0x7DA JUMP JUMPDEST PUSH1 0x40 DUP3 ADD SWAP1 POP SWAP2 SWAP1 POP JUMP JUMPDEST PUSH1 0x0 PUSH1 0x20 DUP3 ADD SWAP1 POP DUP2 DUP2 SUB PUSH1 0x0 DUP4 ADD MSTORE PUSH2 0x865 DUP2 PUSH2 0x829 JUMP JUMPDEST SWAP1 POP SWAP2 SWAP1 POP JUMP JUMPDEST PUSH2 0x1871 DUP1 PUSH2 0x87B PUSH1 0x0 CODECOPY PUSH1 0x0 RETURN INVALID PUSH1 0x80 PUSH1 0x40 MSTORE PUSH1 0x4 CALLDATASIZE LT PUSH2 0x102 JUMPI PUSH1 0x0 CALLDATALOAD PUSH1 0xE0 SHR DUP1 PUSH4 0x715018A6 GT PUSH2 0x95 JUMPI DUP1 PUSH4 0xC55D0F56 GT PUSH2 0x64 JUMPI DUP1 PUSH4 0xC55D0F56 EQ PUSH2 0x2C7 JUMPI DUP1 PUSH4 0xE086E5EC EQ PUSH2 0x304 JUMPI DUP1 PUSH4 0xED338FF1 EQ PUSH2 0x31B JUMPI DUP1 PUSH4 0xF2FDE38B EQ PUSH2 0x346 JUMPI DUP1 PUSH4 0xFC0C546A EQ PUSH2 0x36F JUMPI PUSH2 0x109 JUMP JUMPDEST DUP1 PUSH4 0x715018A6 EQ PUSH2 0x22F JUMPI DUP1 PUSH4 0x8DA5CB5B EQ PUSH2 0x246 JUMPI DUP1 PUSH4 0x91516CCE EQ PUSH2 0x271 JUMPI DUP1 PUSH4 0xB3E7B851 EQ PUSH2 0x29C JUMPI PUSH2 0x109 JUMP JUMPDEST DUP1 PUSH4 0x4EFB991B GT PUSH2 0xD1 JUMPI DUP1 PUSH4 0x4EFB991B EQ PUSH2 0x183 JUMPI DUP1 PUSH4 0x518AB2A8 EQ PUSH2 0x1AE JUMPI DUP1 PUSH4 0x5FA17324 EQ PUSH2 0x1D9 JUMPI DUP1 PUSH4 0x60219C7B EQ PUSH2 0x204 JUMPI PUSH2 0x109 JUMP JUMPDEST DUP1 PUSH4 0x2C7B78B6 EQ PUSH2 0x10E JUMPI DUP1 PUSH4 0x3610724E EQ PUSH2 0x125 JUMPI DUP1 PUSH4 0x380D831B EQ PUSH2 0x141 JUMPI DUP1 PUSH4 0x4A3E9F20 EQ PUSH2 0x158 JUMPI PUSH2 0x109 JUMP JUMPDEST CALLDATASIZE PUSH2 0x109 JUMPI STOP JUMPDEST PUSH1 0x0 DUP1 REVERT JUMPDEST CALLVALUE DUP1 ISZERO PUSH2 0x11A JUMPI PUSH1 0x0 DUP1 REVERT JUMPDEST POP PUSH2 0x123 PUSH2 0x39A JUMP JUMPDEST STOP JUMPDEST PUSH2 0x13F PUSH1 0x4 DUP1 CALLDATASIZE SUB DUP2 ADD SWAP1 PUSH2 0x13A SWAP2 SWAP1 PUSH2 0xF16 JUMP JUMPDEST PUSH2 0x52B JUMP JUMPDEST STOP JUMPDEST CALLVALUE DUP1 ISZERO PUSH2 0x14D JUMPI PUSH1 0x0 DUP1 REVERT JUMPDEST POP PUSH2 0x156 PUSH2 0x8D8 JUMP JUMPDEST STOP JUMPDEST CALLVALUE DUP1 ISZERO PUSH2 0x164 JUMPI PUSH1 0x0 DUP1 REVERT JUMPDEST POP PUSH2 0x16D PUSH2 0xAC4 JUMP JUMPDEST PUSH1 0x40 MLOAD PUSH2 0x17A SWAP2 SWAP1 PUSH2 0xF52 JUMP JUMPDEST PUSH1 0x40 MLOAD DUP1 SWAP2 SUB SWAP1 RETURN JUMPDEST CALLVALUE DUP1 ISZERO PUSH2 0x18F JUMPI PUSH1 0x0 DUP1 REVERT JUMPDEST POP PUSH2 0x198 PUSH2 0xAC9 JUMP JUMPDEST PUSH1 0x40 MLOAD PUSH2 0x1A5 SWAP2 SWAP1 PUSH2 0xF52 JUMP JUMPDEST PUSH1 0x40 MLOAD DUP1 SWAP2 SUB SWAP1 RETURN JUMPDEST CALLVALUE DUP1 ISZERO PUSH2 0x1BA JUMPI PUSH1 0x0 DUP1 REVERT JUMPDEST POP PUSH2 0x1C3 PUSH2 0xACF JUMP JUMPDEST PUSH1 0x40 MLOAD PUSH2 0x1D0 SWAP2 SWAP1 PUSH2 0xF52 JUMP JUMPDEST PUSH1 0x40 MLOAD DUP1 SWAP2 SUB SWAP1 RETURN JUMPDEST CALLVALUE DUP1 ISZERO PUSH2 0x1E5 JUMPI PUSH1 0x0 DUP1 REVERT JUMPDEST POP PUSH2 0x1EE PUSH2 0xAD5 JUMP JUMPDEST PUSH1 0x40 MLOAD PUSH2 0x1FB SWAP2 SWAP1 PUSH2 0xF52 JUMP JUMPDEST PUSH1 0x40 MLOAD DUP1 SWAP2 SUB SWAP1 RETURN JUMPDEST CALLVALUE DUP1 ISZERO PUSH2 0x210 JUMPI PUSH1 0x0 DUP1 REVERT JUMPDEST POP PUSH2 0x219 PUSH2 0xADB JUMP JUMPDEST PUSH1 0x40 MLOAD PUSH2 0x226 SWAP2 SWAP1 PUSH2 0xF52 JUMP JUMPDEST PUSH1 0x40 MLOAD DUP1 SWAP2 SUB SWAP1 RETURN JUMPDEST CALLVALUE DUP1 ISZERO PUSH2 0x23B JUMPI PUSH1 0x0 DUP1 REVERT JUMPDEST POP PUSH2 0x244 PUSH2 0xAE1 JUMP JUMPDEST STOP JUMPDEST CALLVALUE DUP1 ISZERO PUSH2 0x252 JUMPI PUSH1 0x0 DUP1 REVERT JUMPDEST POP PUSH2 0x25B PUSH2 0xAF5 JUMP JUMPDEST PUSH1 0x40 MLOAD PUSH2 0x268 SWAP2 SWAP1 PUSH2 0xFAE JUMP JUMPDEST PUSH1 0x40 MLOAD DUP1 SWAP2 SUB SWAP1 RETURN JUMPDEST CALLVALUE DUP1 ISZERO PUSH2 0x27D JUMPI PUSH1 0x0 DUP1 REVERT JUMPDEST POP PUSH2 0x286 PUSH2 0xB1E JUMP JUMPDEST PUSH1 0x40 MLOAD PUSH2 0x293 SWAP2 SWAP1 PUSH2 0xF52 JUMP JUMPDEST PUSH1 0x40 MLOAD DUP1 SWAP2 SUB SWAP1 RETURN JUMPDEST CALLVALUE DUP1 ISZERO PUSH2 0x2A8 JUMPI PUSH1 0x0 DUP1 REVERT JUMPDEST POP PUSH2 0x2B1 PUSH2 0xB24 JUMP JUMPDEST PUSH1 0x40 MLOAD PUSH2 0x2BE SWAP2 SWAP1 PUSH2 0xF52 JUMP JUMPDEST PUSH1 0x40 MLOAD DUP1 SWAP2 SUB SWAP1 RETURN JUMPDEST CALLVALUE DUP1 ISZERO PUSH2 0x2D3 JUMPI PUSH1 0x0 DUP1 REVERT JUMPDEST POP PUSH2 0x2EE PUSH1 0x4 DUP1 CALLDATASIZE SUB DUP2 ADD SWAP1 PUSH2 0x2E9 SWAP2 SWAP1 PUSH2 0xF16 JUMP JUMPDEST PUSH2 0xB29 JUMP JUMPDEST PUSH1 0x40 MLOAD PUSH2 0x2FB SWAP2 SWAP1 PUSH2 0xF52 JUMP JUMPDEST PUSH1 0x40 MLOAD DUP1 SWAP2 SUB SWAP1 RETURN JUMPDEST CALLVALUE DUP1 ISZERO PUSH2 0x310 JUMPI PUSH1 0x0 DUP1 REVERT JUMPDEST POP PUSH2 0x319 PUSH2 0xC1F JUMP JUMPDEST STOP JUMPDEST CALLVALUE DUP1 ISZERO PUSH2 0x327 JUMPI PUSH1 0x0 DUP1 REVERT JUMPDEST POP PUSH2 0x330 PUSH2 0xC87 JUMP JUMPDEST PUSH1 0x40 MLOAD PUSH2 0x33D SWAP2 SWAP1 PUSH2 0xF52 JUMP JUMPDEST PUSH1 0x40 MLOAD DUP1 SWAP2 SUB SWAP1 RETURN JUMPDEST CALLVALUE DUP1 ISZERO PUSH2 0x352 JUMPI PUSH1 0x0 DUP1 REVERT JUMPDEST POP PUSH2 0x36D PUSH1 0x4 DUP1 CALLDATASIZE SUB DUP2 ADD SWAP1 PUSH2 0x368 SWAP2 SWAP1 PUSH2 0xFF5 JUMP JUMPDEST PUSH2 0xC8D JUMP JUMPDEST STOP JUMPDEST CALLVALUE DUP1 ISZERO PUSH2 0x37B JUMPI PUSH1 0x0 DUP1 REVERT JUMPDEST POP PUSH2 0x384 PUSH2 0xD13 JUMP JUMPDEST PUSH1 0x40 MLOAD PUSH2 0x391 SWAP2 SWAP1 PUSH2 0x1081 JUMP JUMPDEST PUSH1 0x40 MLOAD DUP1 SWAP2 SUB SWAP1 RETURN JUMPDEST PUSH2 0x3A2 PUSH2 0xD39 JUMP JUMPDEST PUSH1 0x2 PUSH1 0x0 SWAP1 SLOAD SWAP1 PUSH2 0x100 EXP SWAP1 DIV PUSH20 0xFFFFFFFFFFFFFFFFFFFFFFFFFFFFFFFFFFFFFFFF AND PUSH20 0xFFFFFFFFFFFFFFFFFFFFFFFFFFFFFFFFFFFFFFFF AND PUSH4 0x313CE567 PUSH1 0x40 MLOAD DUP2 PUSH4 0xFFFFFFFF AND PUSH1 0xE0 SHL DUP2 MSTORE PUSH1 0x4 ADD PUSH1 0x20 PUSH1 0x40 MLOAD DUP1 DUP4 SUB DUP2 DUP7 GAS STATICCALL ISZERO DUP1 ISZERO PUSH2 0x40F JUMPI RETURNDATASIZE PUSH1 0x0 DUP1 RETURNDATACOPY RETURNDATASIZE PUSH1 0x0 REVERT JUMPDEST POP POP POP POP PUSH1 0x40 MLOAD RETURNDATASIZE PUSH1 0x1F NOT PUSH1 0x1F DUP3 ADD AND DUP3 ADD DUP1 PUSH1 0x40 MSTORE POP DUP2 ADD SWAP1 PUSH2 0x433 SWAP2 SWAP1 PUSH2 0x10D5 JUMP JUMPDEST PUSH1 0xA PUSH2 0x43F SWAP2 SWAP1 PUSH2 0x1264 JUMP JUMPDEST PUSH1 0x7 SLOAD PUSH2 0x44C SWAP2 SWAP1 PUSH2 0x12AF JUMP JUMPDEST PUSH1 0x2 PUSH1 0x0 SWAP1 SLOAD SWAP1 PUSH2 0x100 EXP SWAP1 DIV PUSH20 0xFFFFFFFFFFFFFFFFFFFFFFFFFFFFFFFFFFFFFFFF AND PUSH20 0xFFFFFFFFFFFFFFFFFFFFFFFFFFFFFFFFFFFFFFFF AND PUSH4 0x70A08231 ADDRESS PUSH1 0x40 MLOAD DUP3 PUSH4 0xFFFFFFFF AND PUSH1 0xE0 SHL DUP2 MSTORE PUSH1 0x4 ADD PUSH2 0x4A7 SWAP2 SWAP1 PUSH2 0xFAE JUMP JUMPDEST PUSH1 0x20 PUSH1 0x40 MLOAD DUP1 DUP4 SUB DUP2 DUP7 GAS STATICCALL ISZERO DUP1 ISZERO PUSH2 0x4C4 JUMPI RETURNDATASIZE PUSH1 0x0 DUP1 RETURNDATACOPY RETURNDATASIZE PUSH1 0x0 REVERT JUMPDEST POP POP POP POP PUSH1 0x40 MLOAD RETURNDATASIZE PUSH1 0x1F NOT PUSH1 0x1F DUP3 ADD AND DUP3 ADD DUP1 PUSH1 0x40 MSTORE POP DUP2 ADD SWAP1 PUSH2 0x4E8 SWAP2 SWAP1 PUSH2 0x1306 JUMP JUMPDEST LT ISZERO PUSH2 0x529 JUMPI PUSH1 0x40 MLOAD PUSH32 0x8C379A000000000000000000000000000000000000000000000000000000000 DUP2 MSTORE PUSH1 0x4 ADD PUSH2 0x520 SWAP1 PUSH2 0x13B6 JUMP JUMPDEST PUSH1 0x40 MLOAD DUP1 SWAP2 SUB SWAP1 REVERT JUMPDEST JUMP JUMPDEST PUSH1 0x4 SLOAD TIMESTAMP LT PUSH2 0x56F JUMPI PUSH1 0x40 MLOAD PUSH32 0x8C379A000000000000000000000000000000000000000000000000000000000 DUP2 MSTORE PUSH1 0x4 ADD PUSH2 0x566 SWAP1 PUSH2 0x1422 JUMP JUMPDEST PUSH1 0x40 MLOAD DUP1 SWAP2 SUB SWAP1 REVERT JUMPDEST PUSH1 0x7 SLOAD PUSH1 0x3 SLOAD LT PUSH2 0x5B5 JUMPI PUSH1 0x40 MLOAD PUSH32 0x8C379A000000000000000000000000000000000000000000000000000000000 DUP2 MSTORE PUSH1 0x4 ADD PUSH2 0x5AC SWAP1 PUSH2 0x14B4 JUMP JUMPDEST PUSH1 0x40 MLOAD DUP1 SWAP2 SUB SWAP1 REVERT JUMPDEST PUSH2 0x5BD PUSH2 0xDC0 JUMP JUMPDEST PUSH1 0x0 DUP2 GT PUSH2 0x600 JUMPI PUSH1 0x40 MLOAD PUSH32 0x8C379A000000000000000000000000000000000000000000000000000000000 DUP2 MSTORE PUSH1 0x4 ADD PUSH2 0x5F7 SWAP1 PUSH2 0x1546 JUMP JUMPDEST PUSH1 0x40 MLOAD DUP1 SWAP2 SUB SWAP1 REVERT JUMPDEST PUSH1 0x7 SLOAD DUP2 PUSH1 0x3 SLOAD PUSH2 0x611 SWAP2 SWAP1 PUSH2 0x1566 JUMP JUMPDEST GT ISZERO PUSH2 0x652 JUMPI PUSH1 0x40 MLOAD PUSH32 0x8C379A000000000000000000000000000000000000000000000000000000000 DUP2 MSTORE PUSH1 0x4 ADD PUSH2 0x649 SWAP1 PUSH2 0x160C JUMP JUMPDEST PUSH1 0x40 MLOAD DUP1 SWAP2 SUB SWAP1 REVERT JUMPDEST PUSH1 0x0 DUP1 PUSH1 0x0 SWAP1 POP PUSH1 0x0 PUSH1 0x8 SLOAD PUSH1 0x3 SLOAD LT ISZERO PUSH2 0x6AB JUMPI PUSH1 0x8 SLOAD DUP5 PUSH1 0x3 SLOAD PUSH2 0x678 SWAP2 SWAP1 PUSH2 0x1566 JUMP JUMPDEST GT PUSH2 0x685 JUMPI DUP4 SWAP2 POP PUSH2 0x6A6 JUMP JUMPDEST PUSH1 0x3 SLOAD PUSH1 0x8 SLOAD PUSH2 0x695 SWAP2 SWAP1 PUSH2 0x162C JUMP JUMPDEST SWAP2 POP DUP2 DUP5 PUSH2 0x6A3 SWAP2 SWAP1 PUSH2 0x162C JUMP JUMPDEST SWAP1 POP JUMPDEST PUSH2 0x6AF JUMP JUMPDEST DUP4 SWAP1 POP JUMPDEST PUSH1 0x6 SLOAD DUP2 PUSH2 0x6BD SWAP2 SWAP1 PUSH2 0x12AF JUMP JUMPDEST PUSH1 0x5 SLOAD DUP4 PUSH2 0x6CB SWAP2 SWAP1 PUSH2 0x12AF JUMP JUMPDEST PUSH2 0x6D5 SWAP2 SWAP1 PUSH2 0x1566 JUMP JUMPDEST SWAP3 POP DUP3 CALLVALUE EQ PUSH2 0x719 JUMPI PUSH1 0x40 MLOAD PUSH32 0x8C379A000000000000000000000000000000000000000000000000000000000 DUP2 MSTORE PUSH1 0x4 ADD PUSH2 0x710 SWAP1 PUSH2 0x16D2 JUMP JUMPDEST PUSH1 0x40 MLOAD DUP1 SWAP2 SUB SWAP1 REVERT JUMPDEST DUP4 PUSH1 0x3 PUSH1 0x0 DUP3 DUP3 SLOAD PUSH2 0x72B SWAP2 SWAP1 PUSH2 0x1566 JUMP JUMPDEST SWAP3 POP POP DUP2 SWAP1 SSTORE POP PUSH1 0x2 PUSH1 0x0 SWAP1 SLOAD SWAP1 PUSH2 0x100 EXP SWAP1 DIV PUSH20 0xFFFFFFFFFFFFFFFFFFFFFFFFFFFFFFFFFFFFFFFF AND PUSH20 0xFFFFFFFFFFFFFFFFFFFFFFFFFFFFFFFFFFFFFFFF AND PUSH4 0xA9059CBB CALLER PUSH1 0x2 PUSH1 0x0 SWAP1 SLOAD SWAP1 PUSH2 0x100 EXP SWAP1 DIV PUSH20 0xFFFFFFFFFFFFFFFFFFFFFFFFFFFFFFFFFFFFFFFF AND PUSH20 0xFFFFFFFFFFFFFFFFFFFFFFFFFFFFFFFFFFFFFFFF AND PUSH4 0x313CE567 PUSH1 0x40 MLOAD DUP2 PUSH4 0xFFFFFFFF AND PUSH1 0xE0 SHL DUP2 MSTORE PUSH1 0x4 ADD PUSH1 0x20 PUSH1 0x40 MLOAD DUP1 DUP4 SUB DUP2 DUP7 GAS STATICCALL ISZERO DUP1 ISZERO PUSH2 0x7DE JUMPI RETURNDATASIZE PUSH1 0x0 DUP1 RETURNDATACOPY RETURNDATASIZE PUSH1 0x0 REVERT JUMPDEST POP POP POP POP PUSH1 0x40 MLOAD RETURNDATASIZE PUSH1 0x1F NOT PUSH1 0x1F DUP3 ADD AND DUP3 ADD DUP1 PUSH1 0x40 MSTORE POP DUP2 ADD SWAP1 PUSH2 0x802 SWAP2 SWAP1 PUSH2 0x10D5 JUMP JUMPDEST PUSH1 0xA PUSH2 0x80E SWAP2 SWAP1 PUSH2 0x1264 JUMP JUMPDEST DUP8 PUSH2 0x819 SWAP2 SWAP1 PUSH2 0x12AF JUMP JUMPDEST PUSH1 0x40 MLOAD DUP4 PUSH4 0xFFFFFFFF AND PUSH1 0xE0 SHL DUP2 MSTORE PUSH1 0x4 ADD PUSH2 0x836 SWAP3 SWAP2 SWAP1 PUSH2 0x16F2 JUMP JUMPDEST PUSH1 0x20 PUSH1 0x40 MLOAD DUP1 DUP4 SUB DUP2 PUSH1 0x0 DUP8 GAS CALL ISZERO DUP1 ISZERO PUSH2 0x855 JUMPI RETURNDATASIZE PUSH1 0x0 DUP1 RETURNDATACOPY RETURNDATASIZE PUSH1 0x0 REVERT JUMPDEST POP POP POP POP PUSH1 0x40 MLOAD RETURNDATASIZE PUSH1 0x1F NOT PUSH1 0x1F DUP3 ADD AND DUP3 ADD DUP1 PUSH1 0x40 MSTORE POP DUP2 ADD SWAP1 PUSH2 0x879 SWAP2 SWAP1 PUSH2 0x1753 JUMP JUMPDEST POP CALLER PUSH20 0xFFFFFFFFFFFFFFFFFFFFFFFFFFFFFFFFFFFFFFFF AND PUSH32 0x8FAFEBCAF9D154343DAD25669BFA277F4FBACD7AC6B0C4FED522580E040A0F33 DUP6 CALLVALUE PUSH1 0x40 MLOAD PUSH2 0x8C2 SWAP3 SWAP2 SWAP1 PUSH2 0x1780 JUMP JUMPDEST PUSH1 0x40 MLOAD DUP1 SWAP2 SUB SWAP1 LOG2 POP POP POP PUSH2 0x8D5 PUSH2 0xE06 JUMP JUMPDEST POP JUMP JUMPDEST PUSH2 0x8E0 PUSH2 0xD39 JUMP JUMPDEST PUSH1 0x4 SLOAD TIMESTAMP LT ISZERO DUP1 PUSH2 0x8F5 JUMPI POP PUSH1 0x7 SLOAD PUSH1 0x3 SLOAD LT ISZERO JUMPDEST PUSH2 0x934 JUMPI PUSH1 0x40 MLOAD PUSH32 0x8C379A000000000000000000000000000000000000000000000000000000000 DUP2 MSTORE PUSH1 0x4 ADD PUSH2 0x92B SWAP1 PUSH2 0x181B JUMP JUMPDEST PUSH1 0x40 MLOAD DUP1 SWAP2 SUB SWAP1 REVERT JUMPDEST PUSH1 0x0 PUSH1 0x2 PUSH1 0x0 SWAP1 SLOAD SWAP1 PUSH2 0x100 EXP SWAP1 DIV PUSH20 0xFFFFFFFFFFFFFFFFFFFFFFFFFFFFFFFFFFFFFFFF AND PUSH20 0xFFFFFFFFFFFFFFFFFFFFFFFFFFFFFFFFFFFFFFFF AND PUSH4 0x70A08231 ADDRESS PUSH1 0x40 MLOAD DUP3 PUSH4 0xFFFFFFFF AND PUSH1 0xE0 SHL DUP2 MSTORE PUSH1 0x4 ADD PUSH2 0x991 SWAP2 SWAP1 PUSH2 0xFAE JUMP JUMPDEST PUSH1 0x20 PUSH1 0x40 MLOAD DUP1 DUP4 SUB DUP2 DUP7 GAS STATICCALL ISZERO DUP1 ISZERO PUSH2 0x9AE JUMPI RETURNDATASIZE PUSH1 0x0 DUP1 RETURNDATACOPY RETURNDATASIZE PUSH1 0x0 REVERT JUMPDEST POP POP POP POP PUSH1 0x40 MLOAD RETURNDATASIZE PUSH1 0x1F NOT PUSH1 0x1F DUP3 ADD AND DUP3 ADD DUP1 PUSH1 0x40 MSTORE POP DUP2 ADD SWAP1 PUSH2 0x9D2 SWAP2 SWAP1 PUSH2 0x1306 JUMP JUMPDEST SWAP1 POP PUSH1 0x0 DUP2 GT ISZERO PUSH2 0xA86 JUMPI PUSH1 0x2 PUSH1 0x0 SWAP1 SLOAD SWAP1 PUSH2 0x100 EXP SWAP1 DIV PUSH20 0xFFFFFFFFFFFFFFFFFFFFFFFFFFFFFFFFFFFFFFFF AND PUSH20 0xFFFFFFFFFFFFFFFFFFFFFFFFFFFFFFFFFFFFFFFF AND PUSH4 0xA9059CBB PUSH2 0xA23 PUSH2 0xAF5 JUMP JUMPDEST DUP4 PUSH1 0x40 MLOAD DUP4 PUSH4 0xFFFFFFFF AND PUSH1 0xE0 SHL DUP2 MSTORE PUSH1 0x4 ADD PUSH2 0xA41 SWAP3 SWAP2 SWAP1 PUSH2 0x16F2 JUMP JUMPDEST PUSH1 0x20 PUSH1 0x40 MLOAD DUP1 DUP4 SUB DUP2 PUSH1 0x0 DUP8 GAS CALL ISZERO DUP1 ISZERO PUSH2 0xA60 JUMPI RETURNDATASIZE PUSH1 0x0 DUP1 RETURNDATACOPY RETURNDATASIZE PUSH1 0x0 REVERT JUMPDEST POP POP POP POP PUSH1 0x40 MLOAD RETURNDATASIZE PUSH1 0x1F NOT PUSH1 0x1F DUP3 ADD AND DUP3 ADD DUP1 PUSH1 0x40 MSTORE POP DUP2 ADD SWAP1 PUSH2 0xA84 SWAP2 SWAP1 PUSH2 0x1753 JUMP JUMPDEST POP JUMPDEST PUSH32 0xCE4010416B0DEC196298B584CEEBDD43ECF89E6C03007517C3A7F4403DB6C212 PUSH1 0x3 SLOAD TIMESTAMP PUSH1 0x40 MLOAD PUSH2 0xAB9 SWAP3 SWAP2 SWAP1 PUSH2 0x1780 JUMP JUMPDEST PUSH1 0x40 MLOAD DUP1 SWAP2 SUB SWAP1 LOG1 POP JUMP JUMPDEST PUSH1 0x19 DUP2 JUMP JUMPDEST PUSH1 0x8 SLOAD DUP2 JUMP JUMPDEST PUSH1 0x3 SLOAD DUP2 JUMP JUMPDEST PUSH1 0x5 SLOAD DUP2 JUMP JUMPDEST PUSH1 0x7 SLOAD DUP2 JUMP JUMPDEST PUSH2 0xAE9 PUSH2 0xD39 JUMP JUMPDEST PUSH2 0xAF3 PUSH1 0x0 PUSH2 0xE0F JUMP JUMPDEST JUMP JUMPDEST PUSH1 0x0 DUP1 PUSH1 0x0 SWAP1 SLOAD SWAP1 PUSH2 0x100 EXP SWAP1 DIV PUSH20 0xFFFFFFFFFFFFFFFFFFFFFFFFFFFFFFFFFFFFFFFF AND SWAP1 POP SWAP1 JUMP JUMPDEST PUSH1 0x6 SLOAD DUP2 JUMP JUMPDEST PUSH1 0x32 DUP2 JUMP JUMPDEST PUSH1 0x0 PUSH1 0x4 SLOAD TIMESTAMP LT ISZERO DUP1 PUSH2 0xB40 JUMPI POP PUSH1 0x7 SLOAD PUSH1 0x3 SLOAD LT ISZERO JUMPDEST ISZERO PUSH2 0xB4E JUMPI PUSH1 0x0 SWAP1 POP PUSH2 0xC1A JUMP JUMPDEST PUSH1 0x7 SLOAD DUP3 PUSH1 0x3 SLOAD PUSH2 0xB5F SWAP2 SWAP1 PUSH2 0x1566 JUMP JUMPDEST GT ISZERO PUSH2 0xB8D JUMPI PUSH32 0xFFFFFFFFFFFFFFFFFFFFFFFFFFFFFFFFFFFFFFFFFFFFFFFFFFFFFFFFFFFFFFFF SWAP1 POP PUSH2 0xC1A JUMP JUMPDEST PUSH1 0x0 DUP1 PUSH1 0x0 SWAP1 POP PUSH1 0x0 DUP1 PUSH1 0x3 SLOAD SWAP1 POP PUSH1 0x8 SLOAD DUP2 LT ISZERO PUSH2 0xBE6 JUMPI PUSH1 0x8 SLOAD DUP7 DUP3 PUSH2 0xBB5 SWAP2 SWAP1 PUSH2 0x1566 JUMP JUMPDEST GT PUSH2 0xBC2 JUMPI DUP6 SWAP3 POP PUSH2 0xBE1 JUMP JUMPDEST DUP1 PUSH1 0x8 SLOAD PUSH2 0xBD0 SWAP2 SWAP1 PUSH2 0x162C JUMP JUMPDEST SWAP3 POP DUP3 DUP7 PUSH2 0xBDE SWAP2 SWAP1 PUSH2 0x162C JUMP JUMPDEST SWAP2 POP JUMPDEST PUSH2 0xBEA JUMP JUMPDEST DUP6 SWAP2 POP JUMPDEST PUSH1 0x6 SLOAD DUP3 PUSH2 0xBF8 SWAP2 SWAP1 PUSH2 0x12AF JUMP JUMPDEST PUSH1 0x5 SLOAD DUP5 PUSH2 0xC06 SWAP2 SWAP1 PUSH2 0x12AF JUMP JUMPDEST PUSH2 0xC10 SWAP2 SWAP1 PUSH2 0x1566 JUMP JUMPDEST SWAP4 POP DUP4 SWAP5 POP POP POP POP POP JUMPDEST SWAP2 SWAP1 POP JUMP JUMPDEST PUSH2 0xC27 PUSH2 0xD39 JUMP JUMPDEST PUSH2 0xC2F PUSH2 0xDC0 JUMP JUMPDEST PUSH2 0xC37 PUSH2 0xAF5 JUMP JUMPDEST PUSH20 0xFFFFFFFFFFFFFFFFFFFFFFFFFFFFFFFFFFFFFFFF AND PUSH2 0x8FC SELFBALANCE SWAP1 DUP2 ISZERO MUL SWAP1 PUSH1 0x40 MLOAD PUSH1 0x0 PUSH1 0x40 MLOAD DUP1 DUP4 SUB DUP2 DUP6 DUP9 DUP9 CALL SWAP4 POP POP POP POP ISZERO DUP1 ISZERO PUSH2 0xC7C JUMPI RETURNDATASIZE PUSH1 0x0 DUP1 RETURNDATACOPY RETURNDATASIZE PUSH1 0x0 REVERT JUMPDEST POP PUSH2 0xC85 PUSH2 0xE06 JUMP JUMPDEST JUMP JUMPDEST PUSH1 0x4 SLOAD DUP2 JUMP JUMPDEST PUSH2 0xC95 PUSH2 0xD39 JUMP JUMPDEST PUSH1 0x0 PUSH20 0xFFFFFFFFFFFFFFFFFFFFFFFFFFFFFFFFFFFFFFFF AND DUP2 PUSH20 0xFFFFFFFFFFFFFFFFFFFFFFFFFFFFFFFFFFFFFFFF AND SUB PUSH2 0xD07 JUMPI PUSH1 0x0 PUSH1 0x40 MLOAD PUSH32 0x1E4FBDF700000000000000000000000000000000000000000000000000000000 DUP2 MSTORE PUSH1 0x4 ADD PUSH2 0xCFE SWAP2 SWAP1 PUSH2 0xFAE JUMP JUMPDEST PUSH1 0x40 MLOAD DUP1 SWAP2 SUB SWAP1 REVERT JUMPDEST PUSH2 0xD10 DUP2 PUSH2 0xE0F JUMP JUMPDEST POP JUMP JUMPDEST PUSH1 0x2 PUSH1 0x0 SWAP1 SLOAD SWAP1 PUSH2 0x100 EXP SWAP1 DIV PUSH20 0xFFFFFFFFFFFFFFFFFFFFFFFFFFFFFFFFFFFFFFFF AND DUP2 JUMP JUMPDEST PUSH2 0xD41 PUSH2 0xED3 JUMP JUMPDEST PUSH20 0xFFFFFFFFFFFFFFFFFFFFFFFFFFFFFFFFFFFFFFFF AND PUSH2 0xD5F PUSH2 0xAF5 JUMP JUMPDEST PUSH20 0xFFFFFFFFFFFFFFFFFFFFFFFFFFFFFFFFFFFFFFFF AND EQ PUSH2 0xDBE JUMPI PUSH2 0xD82 PUSH2 0xED3 JUMP JUMPDEST PUSH1 0x40 MLOAD PUSH32 0x118CDAA700000000000000000000000000000000000000000000000000000000 DUP2 MSTORE PUSH1 0x4 ADD PUSH2 0xDB5 SWAP2 SWAP1 PUSH2 0xFAE JUMP JUMPDEST PUSH1 0x40 MLOAD DUP1 SWAP2 SUB SWAP1 REVERT JUMPDEST JUMP JUMPDEST PUSH1 0x2 PUSH1 0x1 SLOAD SUB PUSH2 0xDFC JUMPI PUSH1 0x40 MLOAD PUSH32 0x3EE5AEB500000000000000000000000000000000000000000000000000000000 DUP2 MSTORE PUSH1 0x4 ADD PUSH1 0x40 MLOAD DUP1 SWAP2 SUB SWAP1 REVERT JUMPDEST PUSH1 0x2 PUSH1 0x1 DUP2 SWAP1 SSTORE POP JUMP JUMPDEST PUSH1 0x1 DUP1 DUP2 SWAP1 SSTORE POP JUMP JUMPDEST PUSH1 0x0 DUP1 PUSH1 0x0 SWAP1 SLOAD SWAP1 PUSH2 0x100 EXP SWAP1 DIV PUSH20 0xFFFFFFFFFFFFFFFFFFFFFFFFFFFFFFFFFFFFFFFF AND SWAP1 POP DUP2 PUSH1 0x0 DUP1 PUSH2 0x100 EXP DUP2 SLOAD DUP2 PUSH20 0xFFFFFFFFFFFFFFFFFFFFFFFFFFFFFFFFFFFFFFFF MUL NOT AND SWAP1 DUP4 PUSH20 0xFFFFFFFFFFFFFFFFFFFFFFFFFFFFFFFFFFFFFFFF AND MUL OR SWAP1 SSTORE POP DUP2 PUSH20 0xFFFFFFFFFFFFFFFFFFFFFFFFFFFFFFFFFFFFFFFF AND DUP2 PUSH20 0xFFFFFFFFFFFFFFFFFFFFFFFFFFFFFFFFFFFFFFFF AND PUSH32 0x8BE0079C531659141344CD1FD0A4F28419497F9722A3DAAFE3B4186F6B6457E0 PUSH1 0x40 MLOAD PUSH1 0x40 MLOAD DUP1 SWAP2 SUB SWAP1 LOG3 POP POP JUMP JUMPDEST PUSH1 0x0 CALLER SWAP1 POP SWAP1 JUMP JUMPDEST PUSH1 0x0 DUP1 REVERT JUMPDEST PUSH1 0x0 DUP2 SWAP1 POP SWAP2 SWAP1 POP JUMP JUMPDEST PUSH2 0xEF3 DUP2 PUSH2 0xEE0 JUMP JUMPDEST DUP2 EQ PUSH2 0xEFE JUMPI PUSH1 0x0 DUP1 REVERT JUMPDEST POP JUMP JUMPDEST PUSH1 0x0 DUP2 CALLDATALOAD SWAP1 POP PUSH2 0xF10 DUP2 PUSH2 0xEEA JUMP JUMPDEST SWAP3 SWAP2 POP POP JUMP JUMPDEST PUSH1 0x0 PUSH1 0x20 DUP3 DUP5 SUB SLT ISZERO PUSH2 0xF2C JUMPI PUSH2 0xF2B PUSH2 0xEDB JUMP JUMPDEST JUMPDEST PUSH1 0x0 PUSH2 0xF3A DUP5 DUP3 DUP6 ADD PUSH2 0xF01 JUMP JUMPDEST SWAP2 POP POP SWAP3 SWAP2 POP POP JUMP JUMPDEST PUSH2 0xF4C DUP2 PUSH2 0xEE0 JUMP JUMPDEST DUP3 MSTORE POP POP JUMP JUMPDEST PUSH1 0x0 PUSH1 0x20 DUP3 ADD SWAP1 POP PUSH2 0xF67 PUSH1 0x0 DUP4 ADD DUP5 PUSH2 0xF43 JUMP JUMPDEST SWAP3 SWAP2 POP POP JUMP JUMPDEST PUSH1 0x0 PUSH20 0xFFFFFFFFFFFFFFFFFFFFFFFFFFFFFFFFFFFFFFFF DUP3 AND SWAP1 POP SWAP2 SWAP1 POP JUMP JUMPDEST PUSH1 0x0 PUSH2 0xF98 DUP3 PUSH2 0xF6D JUMP JUMPDEST SWAP1 POP SWAP2 SWAP1 POP JUMP JUMPDEST PUSH2 0xFA8 DUP2 PUSH2 0xF8D JUMP JUMPDEST DUP3 MSTORE POP POP JUMP JUMPDEST PUSH1 0x0 PUSH1 0x20 DUP3 ADD SWAP1 POP PUSH2 0xFC3 PUSH1 0x0 DUP4 ADD DUP5 PUSH2 0xF9F JUMP JUMPDEST SWAP3 SWAP2 POP POP JUMP JUMPDEST PUSH2 0xFD2 DUP2 PUSH2 0xF8D JUMP JUMPDEST DUP2 EQ PUSH2 0xFDD JUMPI PUSH1 0x0 DUP1 REVERT JUMPDEST POP JUMP JUMPDEST PUSH1 0x0 DUP2 CALLDATALOAD SWAP1 POP PUSH2 0xFEF DUP2 PUSH2 0xFC9 JUMP JUMPDEST SWAP3 SWAP2 POP POP JUMP JUMPDEST PUSH1 0x0 PUSH1 0x20 DUP3 DUP5 SUB SLT ISZERO PUSH2 0x100B JUMPI PUSH2 0x100A PUSH2 0xEDB JUMP JUMPDEST JUMPDEST PUSH1 0x0 PUSH2 0x1019 DUP5 DUP3 DUP6 ADD PUSH2 0xFE0 JUMP JUMPDEST SWAP2 POP POP SWAP3 SWAP2 POP POP JUMP JUMPDEST PUSH1 0x0 DUP2 SWAP1 POP SWAP2 SWAP1 POP JUMP JUMPDEST PUSH1 0x0 PUSH2 0x1047 PUSH2 0x1042 PUSH2 0x103D DUP5 PUSH2 0xF6D JUMP JUMPDEST PUSH2 0x1022 JUMP JUMPDEST PUSH2 0xF6D JUMP JUMPDEST SWAP1 POP SWAP2 SWAP1 POP JUMP JUMPDEST PUSH1 0x0 PUSH2 0x1059 DUP3 PUSH2 0x102C JUMP JUMPDEST SWAP1 POP SWAP2 SWAP1 POP JUMP JUMPDEST PUSH1 0x0 PUSH2 0x106B DUP3 PUSH2 0x104E JUMP JUMPDEST SWAP1 POP SWAP2 SWAP1 POP JUMP JUMPDEST PUSH2 0x107B DUP2 PUSH2 0x1060 JUMP JUMPDEST DUP3 MSTORE POP POP JUMP JUMPDEST PUSH1 0x0 PUSH1 0x20 DUP3 ADD SWAP1 POP PUSH2 0x1096 PUSH1 0x0 DUP4 ADD DUP5 PUSH2 0x1072 JUMP JUMPDEST SWAP3 SWAP2 POP POP JUMP JUMPDEST PUSH1 0x0 PUSH1 0xFF DUP3 AND SWAP1 POP SWAP2 SWAP1 POP JUMP JUMPDEST PUSH2 0x10B2 DUP2 PUSH2 0x109C JUMP JUMPDEST DUP2 EQ PUSH2 0x10BD JUMPI PUSH1 0x0 DUP1 REVERT JUMPDEST POP JUMP JUMPDEST PUSH1 0x0 DUP2 MLOAD SWAP1 POP PUSH2 0x10CF DUP2 PUSH2 0x10A9 JUMP JUMPDEST SWAP3 SWAP2 POP POP JUMP JUMPDEST PUSH1 0x0 PUSH1 0x20 DUP3 DUP5 SUB SLT ISZERO PUSH2 0x10EB JUMPI PUSH2 0x10EA PUSH2 0xEDB JUMP JUMPDEST JUMPDEST PUSH1 0x0 PUSH2 0x10F9 DUP5 DUP3 DUP6 ADD PUSH2 0x10C0 JUMP JUMPDEST SWAP2 POP POP SWAP3 SWAP2 POP POP JUMP JUMPDEST PUSH32 0x4E487B7100000000000000000000000000000000000000000000000000000000 PUSH1 0x0 MSTORE PUSH1 0x11 PUSH1 0x4 MSTORE PUSH1 0x24 PUSH1 0x0 REVERT JUMPDEST PUSH1 0x0 DUP2 PUSH1 0x1 SHR SWAP1 POP SWAP2 SWAP1 POP JUMP JUMPDEST PUSH1 0x0 DUP1 DUP3 SWAP2 POP DUP4 SWAP1 POP JUMPDEST PUSH1 0x1 DUP6 GT ISZERO PUSH2 0x1188 JUMPI DUP1 DUP7 DIV DUP2 GT ISZERO PUSH2 0x1164 JUMPI PUSH2 0x1163 PUSH2 0x1102 JUMP JUMPDEST JUMPDEST PUSH1 0x1 DUP6 AND ISZERO PUSH2 0x1173 JUMPI DUP1 DUP3 MUL SWAP2 POP JUMPDEST DUP1 DUP2 MUL SWAP1 POP PUSH2 0x1181 DUP6 PUSH2 0x1131 JUMP JUMPDEST SWAP5 POP PUSH2 0x1148 JUMP JUMPDEST SWAP5 POP SWAP5 SWAP3 POP POP POP JUMP JUMPDEST PUSH1 0x0 DUP3 PUSH2 0x11A1 JUMPI PUSH1 0x1 SWAP1 POP PUSH2 0x125D JUMP JUMPDEST DUP2 PUSH2 0x11AF JUMPI PUSH1 0x0 SWAP1 POP PUSH2 0x125D JUMP JUMPDEST DUP2 PUSH1 0x1 DUP2 EQ PUSH2 0x11C5 JUMPI PUSH1 0x2 DUP2 EQ PUSH2 0x11CF JUMPI PUSH2 0x11FE JUMP JUMPDEST PUSH1 0x1 SWAP2 POP POP PUSH2 0x125D JUMP JUMPDEST PUSH1 0xFF DUP5 GT ISZERO PUSH2 0x11E1 JUMPI PUSH2 0x11E0 PUSH2 0x1102 JUMP JUMPDEST JUMPDEST DUP4 PUSH1 0x2 EXP SWAP2 POP DUP5 DUP3 GT ISZERO PUSH2 0x11F8 JUMPI PUSH2 0x11F7 PUSH2 0x1102 JUMP JUMPDEST JUMPDEST POP PUSH2 0x125D JUMP JUMPDEST POP PUSH1 0x20 DUP4 LT PUSH2 0x133 DUP4 LT AND PUSH1 0x4E DUP5 LT PUSH1 0xB DUP5 LT AND OR ISZERO PUSH2 0x1233 JUMPI DUP3 DUP3 EXP SWAP1 POP DUP4 DUP2 GT ISZERO PUSH2 0x122E JUMPI PUSH2 0x122D PUSH2 0x1102 JUMP JUMPDEST JUMPDEST PUSH2 0x125D JUMP JUMPDEST PUSH2 0x1240 DUP5 DUP5 DUP5 PUSH1 0x1 PUSH2 0x113E JUMP JUMPDEST SWAP3 POP SWAP1 POP DUP2 DUP5 DIV DUP2 GT ISZERO PUSH2 0x1257 JUMPI PUSH2 0x1256 PUSH2 0x1102 JUMP JUMPDEST JUMPDEST DUP2 DUP2 MUL SWAP1 POP JUMPDEST SWAP4 SWAP3 POP POP POP JUMP JUMPDEST PUSH1 0x0 PUSH2 0x126F DUP3 PUSH2 0xEE0 JUMP JUMPDEST SWAP2 POP PUSH2 0x127A DUP4 PUSH2 0x109C JUMP JUMPDEST SWAP3 POP PUSH2 0x12A7 PUSH32 0xFFFFFFFFFFFFFFFFFFFFFFFFFFFFFFFFFFFFFFFFFFFFFFFFFFFFFFFFFFFFFFFF DUP5 DUP5 PUSH2 0x1191 JUMP JUMPDEST SWAP1 POP SWAP3 SWAP2 POP POP JUMP JUMPDEST PUSH1 0x0 PUSH2 0x12BA DUP3 PUSH2 0xEE0 JUMP JUMPDEST SWAP2 POP PUSH2 0x12C5 DUP4 PUSH2 0xEE0 JUMP JUMPDEST SWAP3 POP DUP3 DUP3 MUL PUSH2 0x12D3 DUP2 PUSH2 0xEE0 JUMP JUMPDEST SWAP2 POP DUP3 DUP3 DIV DUP5 EQ DUP4 ISZERO OR PUSH2 0x12EA JUMPI PUSH2 0x12E9 PUSH2 0x1102 JUMP JUMPDEST JUMPDEST POP SWAP3 SWAP2 POP POP JUMP JUMPDEST PUSH1 0x0 DUP2 MLOAD SWAP1 POP PUSH2 0x1300 DUP2 PUSH2 0xEEA JUMP JUMPDEST SWAP3 SWAP2 POP POP JUMP JUMPDEST PUSH1 0x0 PUSH1 0x20 DUP3 DUP5 SUB SLT ISZERO PUSH2 0x131C JUMPI PUSH2 0x131B PUSH2 0xEDB JUMP JUMPDEST JUMPDEST PUSH1 0x0 PUSH2 0x132A DUP5 DUP3 DUP6 ADD PUSH2 0x12F1 JUMP JUMPDEST SWAP2 POP POP SWAP3 SWAP2 POP POP JUMP JUMPDEST PUSH1 0x0 DUP3 DUP3 MSTORE PUSH1 0x20 DUP3 ADD SWAP1 POP SWAP3 SWAP2 POP POP JUMP JUMPDEST PUSH32 0x546F6B656E53616C653A20496E73756666696369656E7420746F6B656E206261 PUSH1 0x0 DUP3 ADD MSTORE PUSH32 0x6C616E636520696E2073616C6520636F6E747261637400000000000000000000 PUSH1 0x20 DUP3 ADD MSTORE POP JUMP JUMPDEST PUSH1 0x0 PUSH2 0x13A0 PUSH1 0x36 DUP4 PUSH2 0x1333 JUMP JUMPDEST SWAP2 POP PUSH2 0x13AB DUP3 PUSH2 0x1344 JUMP JUMPDEST PUSH1 0x40 DUP3 ADD SWAP1 POP SWAP2 SWAP1 POP JUMP JUMPDEST PUSH1 0x0 PUSH1 0x20 DUP3 ADD SWAP1 POP DUP2 DUP2 SUB PUSH1 0x0 DUP4 ADD MSTORE PUSH2 0x13CF DUP2 PUSH2 0x1393 JUMP JUMPDEST SWAP1 POP SWAP2 SWAP1 POP JUMP JUMPDEST PUSH32 0x546F6B656E53616C653A2053616C652068617320656E64656400000000000000 PUSH1 0x0 DUP3 ADD MSTORE POP JUMP JUMPDEST PUSH1 0x0 PUSH2 0x140C PUSH1 0x19 DUP4 PUSH2 0x1333 JUMP JUMPDEST SWAP2 POP PUSH2 0x1417 DUP3 PUSH2 0x13D6 JUMP JUMPDEST PUSH1 0x20 DUP3 ADD SWAP1 POP SWAP2 SWAP1 POP JUMP JUMPDEST PUSH1 0x0 PUSH1 0x20 DUP3 ADD SWAP1 POP DUP2 DUP2 SUB PUSH1 0x0 DUP4 ADD MSTORE PUSH2 0x143B DUP2 PUSH2 0x13FF JUMP JUMPDEST SWAP1 POP SWAP2 SWAP1 POP JUMP JUMPDEST PUSH32 0x546F6B656E53616C653A20416C6C20746F6B656E7320666F722073616C652068 PUSH1 0x0 DUP3 ADD MSTORE PUSH32 0x617665206265656E20736F6C6400000000000000000000000000000000000000 PUSH1 0x20 DUP3 ADD MSTORE POP JUMP JUMPDEST PUSH1 0x0 PUSH2 0x149E PUSH1 0x2D DUP4 PUSH2 0x1333 JUMP JUMPDEST SWAP2 POP PUSH2 0x14A9 DUP3 PUSH2 0x1442 JUMP JUMPDEST PUSH1 0x40 DUP3 ADD SWAP1 POP SWAP2 SWAP1 POP JUMP JUMPDEST PUSH1 0x0 PUSH1 0x20 DUP3 ADD SWAP1 POP DUP2 DUP2 SUB PUSH1 0x0 DUP4 ADD MSTORE PUSH2 0x14CD DUP2 PUSH2 0x1491 JUMP JUMPDEST SWAP1 POP SWAP2 SWAP1 POP JUMP JUMPDEST PUSH32 0x546F6B656E53616C653A204D75737420627579206174206C65617374206F6E65 PUSH1 0x0 DUP3 ADD MSTORE PUSH32 0x20746F6B656E0000000000000000000000000000000000000000000000000000 PUSH1 0x20 DUP3 ADD MSTORE POP JUMP JUMPDEST PUSH1 0x0 PUSH2 0x1530 PUSH1 0x26 DUP4 PUSH2 0x1333 JUMP JUMPDEST SWAP2 POP PUSH2 0x153B DUP3 PUSH2 0x14D4 JUMP JUMPDEST PUSH1 0x40 DUP3 ADD SWAP1 POP SWAP2 SWAP1 POP JUMP JUMPDEST PUSH1 0x0 PUSH1 0x20 DUP3 ADD SWAP1 POP DUP2 DUP2 SUB PUSH1 0x0 DUP4 ADD MSTORE PUSH2 0x155F DUP2 PUSH2 0x1523 JUMP JUMPDEST SWAP1 POP SWAP2 SWAP1 POP JUMP JUMPDEST PUSH1 0x0 PUSH2 0x1571 DUP3 PUSH2 0xEE0 JUMP JUMPDEST SWAP2 POP PUSH2 0x157C DUP4 PUSH2 0xEE0 JUMP JUMPDEST SWAP3 POP DUP3 DUP3 ADD SWAP1 POP DUP1 DUP3 GT ISZERO PUSH2 0x1594 JUMPI PUSH2 0x1593 PUSH2 0x1102 JUMP JUMPDEST JUMPDEST SWAP3 SWAP2 POP POP JUMP JUMPDEST PUSH32 0x546F6B656E53616C653A204E6F7420656E6F75676820746F6B656E73206C6566 PUSH1 0x0 DUP3 ADD MSTORE PUSH32 0x7420666F72207468697320707572636861736500000000000000000000000000 PUSH1 0x20 DUP3 ADD MSTORE POP JUMP JUMPDEST PUSH1 0x0 PUSH2 0x15F6 PUSH1 0x33 DUP4 PUSH2 0x1333 JUMP JUMPDEST SWAP2 POP PUSH2 0x1601 DUP3 PUSH2 0x159A JUMP JUMPDEST PUSH1 0x40 DUP3 ADD SWAP1 POP SWAP2 SWAP1 POP JUMP JUMPDEST PUSH1 0x0 PUSH1 0x20 DUP3 ADD SWAP1 POP DUP2 DUP2 SUB PUSH1 0x0 DUP4 ADD MSTORE PUSH2 0x1625 DUP2 PUSH2 0x15E9 JUMP JUMPDEST SWAP1 POP SWAP2 SWAP1 POP JUMP JUMPDEST PUSH1 0x0 PUSH2 0x1637 DUP3 PUSH2 0xEE0 JUMP JUMPDEST SWAP2 POP PUSH2 0x1642 DUP4 PUSH2 0xEE0 JUMP JUMPDEST SWAP3 POP DUP3 DUP3 SUB SWAP1 POP DUP2 DUP2 GT ISZERO PUSH2 0x165A JUMPI PUSH2 0x1659 PUSH2 0x1102 JUMP JUMPDEST JUMPDEST SWAP3 SWAP2 POP POP JUMP JUMPDEST PUSH32 0x546F6B656E53616C653A20496E636F72726563742045544820616D6F756E7420 PUSH1 0x0 DUP3 ADD MSTORE PUSH32 0x73656E7400000000000000000000000000000000000000000000000000000000 PUSH1 0x20 DUP3 ADD MSTORE POP JUMP JUMPDEST PUSH1 0x0 PUSH2 0x16BC PUSH1 0x24 DUP4 PUSH2 0x1333 JUMP JUMPDEST SWAP2 POP PUSH2 0x16C7 DUP3 PUSH2 0x1660 JUMP JUMPDEST PUSH1 0x40 DUP3 ADD SWAP1 POP SWAP2 SWAP1 POP JUMP JUMPDEST PUSH1 0x0 PUSH1 0x20 DUP3 ADD SWAP1 POP DUP2 DUP2 SUB PUSH1 0x0 DUP4 ADD MSTORE PUSH2 0x16EB DUP2 PUSH2 0x16AF JUMP JUMPDEST SWAP1 POP SWAP2 SWAP1 POP JUMP JUMPDEST PUSH1 0x0 PUSH1 0x40 DUP3 ADD SWAP1 POP PUSH2 0x1707 PUSH1 0x0 DUP4 ADD DUP6 PUSH2 0xF9F JUMP JUMPDEST PUSH2 0x1714 PUSH1 0x20 DUP4 ADD DUP5 PUSH2 0xF43 JUMP JUMPDEST SWAP4 SWAP3 POP POP POP JUMP JUMPDEST PUSH1 0x0 DUP2 ISZERO ISZERO SWAP1 POP SWAP2 SWAP1 POP JUMP JUMPDEST PUSH2 0x1730 DUP2 PUSH2 0x171B JUMP JUMPDEST DUP2 EQ PUSH2 0x173B JUMPI PUSH1 0x0 DUP1 REVERT JUMPDEST POP JUMP JUMPDEST PUSH1 0x0 DUP2 MLOAD SWAP1 POP PUSH2 0x174D DUP2 PUSH2 0x1727 JUMP JUMPDEST SWAP3 SWAP2 POP POP JUMP JUMPDEST PUSH1 0x0 PUSH1 0x20 DUP3 DUP5 SUB SLT ISZERO PUSH2 0x1769 JUMPI PUSH2 0x1768 PUSH2 0xEDB JUMP JUMPDEST JUMPDEST PUSH1 0x0 PUSH2 0x1777 DUP5 DUP3 DUP6 ADD PUSH2 0x173E JUMP JUMPDEST SWAP2 POP POP SWAP3 SWAP2 POP POP JUMP JUMPDEST PUSH1 0x0 PUSH1 0x40 DUP3 ADD SWAP1 POP PUSH2 0x1795 PUSH1 0x0 DUP4 ADD DUP6 PUSH2 0xF43 JUMP JUMPDEST PUSH2 0x17A2 PUSH1 0x20 DUP4 ADD DUP5 PUSH2 0xF43 JUMP JUMPDEST SWAP4 SWAP3 POP POP POP JUMP JUMPDEST PUSH32 0x546F6B656E53616C653A2053616C652063616E6E6F7420626520656E64656420 PUSH1 0x0 DUP3 ADD MSTORE PUSH32 0x7965740000000000000000000000000000000000000000000000000000000000 PUSH1 0x20 DUP3 ADD MSTORE POP JUMP JUMPDEST PUSH1 0x0 PUSH2 0x1805 PUSH1 0x23 DUP4 PUSH2 0x1333 JUMP JUMPDEST SWAP2 POP PUSH2 0x1810 DUP3 PUSH2 0x17A9 JUMP JUMPDEST PUSH1 0x40 DUP3 ADD SWAP1 POP SWAP2 SWAP1 POP JUMP JUMPDEST PUSH1 0x0 PUSH1 0x20 DUP3 ADD SWAP1 POP DUP2 DUP2 SUB PUSH1 0x0 DUP4 ADD MSTORE PUSH2 0x1834 DUP2 PUSH2 0x17F8 JUMP JUMPDEST SWAP1 POP SWAP2 SWAP1 POP JUMP INVALID LOG2 PUSH5 0x6970667358 0x22 SLT KECCAK256 0xB6 0x2A CALLCODE 0xBF 0xE5 0x26 0xE3 POP CALLDATASIZE MSTORE REVERT SWAP2 ADD 0xCB 0xBE 0xB2 PUSH32 0x5BC139C0042C114632387CEEEA6BF864736F6C634300081A0033000000000000 "},"methodIdentifiers":{"FIRST_TIER_PERCENTAGE()":"4a3e9f20","TOTAL_SALE_PERCENTAGE()":"b3e7b851","buyTokens(uint256)":"3610724e","endSale()":"380d831b","firstTierLimit()":"4efb991b","firstTierPrice()":"5fa17324","getCurrentPrice(uint256)":"c55d0f56","initializeSale()":"2c7b78b6","owner()":"8da5cb5b","renounceOwnership()":"715018a6","saleEndTime()":"ed338ff1","secondTierPrice()":"91516cce","token()":"fc0c546a","tokensSold()":"518ab2a8","totalTokensForSale()":"60219c7b","transferOwnership(address)":"f2fde38b","withdrawETH()":"e086e5ec"}}}}}