{
  "_format": "hh-sol-artifact-1",
  "contractName": "TokenSale",
  "sourceName": "contracts/TokenSale.sol",
  "abi": [
    {
      "inputs": [
        {
          "internalType": "address",
          "name": "tokenAddress",
          "type": "address"
        }
      ],
      "stateMutability": "nonpayable",
      "type": "constructor"
    },
    {
      "inputs": [
        {
          "internalType": "address",
          "name": "owner",
          "type": "address"
        }
      ],
      "name": "OwnableInvalidOwner",
      "type": "error"
    },
    {
      "inputs": [
        {
          "internalType": "address",
          "name": "account",
          "type": "address"
        }
      ],
      "name": "OwnableUnauthorizedAccount",
      "type": "error"
    },
    {
      "inputs": [],
      "name": "ReentrancyGuardReentrantCall",
      "type": "error"
    },
    {
      "anonymous": false,
      "inputs": [
        {
          "indexed": true,
          "internalType": "address",
          "name": "previousOwner",
          "type": "address"
        },
        {
          "indexed": true,
          "internalType": "address",
          "name": "newOwner",
          "type": "address"
        }
      ],
      "name": "OwnershipTransferred",
      "type": "event"
    },
    {
      "anonymous": false,
      "inputs": [
        {
          "indexed": false,
          "internalType": "uint256",
          "name": "totalSoldWholeTokens",
          "type": "uint256"
        },
        {
          "indexed": false,
          "internalType": "uint256",
          "name": "time",
          "type": "uint256"
        }
      ],
      "name": "SaleEnded",
      "type": "event"
    },
    {
      "anonymous": false,
      "inputs": [
        {
          "indexed": true,
          "internalType": "address",
          "name": "buyer",
          "type": "address"
        },
        {
          "indexed": false,
          "internalType": "uint256",
          "name": "amountOfWholeTokens",
          "type": "uint256"
        },
        {
          "indexed": false,
          "internalType": "uint256",
          "name": "cost",
          "type": "uint256"
        }
      ],
      "name": "TokensPurchased",
      "type": "event"
    },
    {
      "inputs": [],
      "name": "FIRST_TIER_PERCENTAGE",
      "outputs": [
        {
          "internalType": "uint256",
          "name": "",
          "type": "uint256"
        }
      ],
      "stateMutability": "view",
      "type": "function"
    },
    {
      "inputs": [],
      "name": "TOTAL_SALE_PERCENTAGE",
      "outputs": [
        {
          "internalType": "uint256",
          "name": "",
          "type": "uint256"
        }
      ],
      "stateMutability": "view",
      "type": "function"
    },
    {
      "inputs": [
        {
          "internalType": "uint256",
          "name": "numberOfWholeTokens",
          "type": "uint256"
        }
      ],
      "name": "buyTokens",
      "outputs": [],
      "stateMutability": "payable",
      "type": "function"
    },
    {
      "inputs": [],
      "name": "endSale",
      "outputs": [],
      "stateMutability": "nonpayable",
      "type": "function"
    },
    {
      "inputs": [],
      "name": "firstTierLimit",
      "outputs": [
        {
          "internalType": "uint256",
          "name": "",
          "type": "uint256"
        }
      ],
      "stateMutability": "view",
      "type": "function"
    },
    {
      "inputs": [],
      "name": "firstTierPrice",
      "outputs": [
        {
          "internalType": "uint256",
          "name": "",
          "type": "uint256"
        }
      ],
      "stateMutability": "view",
      "type": "function"
    },
    {
      "inputs": [
        {
          "internalType": "uint256",
          "name": "numberOfWholeTokens",
          "type": "uint256"
        }
      ],
      "name": "getCurrentPrice",
      "outputs": [
        {
          "internalType": "uint256",
          "name": "",
          "type": "uint256"
        }
      ],
      "stateMutability": "view",
      "type": "function"
    },
    {
      "inputs": [],
      "name": "initializeSale",
      "outputs": [],
      "stateMutability": "nonpayable",
      "type": "function"
    },
    {
      "inputs": [],
      "name": "owner",
      "outputs": [
        {
          "internalType": "address",
          "name": "",
          "type": "address"
        }
      ],
      "stateMutability": "view",
      "type": "function"
    },
    {
      "inputs": [],
      "name": "renounceOwnership",
      "outputs": [],
      "stateMutability": "nonpayable",
      "type": "function"
    },
    {
      "inputs": [],
      "name": "saleEndTime",
      "outputs": [
        {
          "internalType": "uint256",
          "name": "",
          "type": "uint256"
        }
      ],
      "stateMutability": "view",
      "type": "function"
    },
    {
      "inputs": [],
      "name": "secondTierPrice",
      "outputs": [
        {
          "internalType": "uint256",
          "name": "",
          "type": "uint256"
        }
      ],
      "stateMutability": "view",
      "type": "function"
    },
    {
      "inputs": [],
      "name": "token",
      "outputs": [
        {
          "internalType": "contract Group2",
          "name": "",
          "type": "address"
        }
      ],
      "stateMutability": "view",
      "type": "function"
    },
    {
      "inputs": [],
      "name": "tokensSold",
      "outputs": [
        {
          "internalType": "uint256",
          "name": "",
          "type": "uint256"
        }
      ],
      "stateMutability": "view",
      "type": "function"
    },
    {
      "inputs": [],
      "name": "totalTokensForSale",
      "outputs": [
        {
          "internalType": "uint256",
          "name": "",
          "type": "uint256"
        }
      ],
      "stateMutability": "view",
      "type": "function"
    },
    {
      "inputs": [
        {
          "internalType": "address",
          "name": "newOwner",
          "type": "address"
        }
      ],
      "name": "transferOwnership",
      "outputs": [],
      "stateMutability": "nonpayable",
      "type": "function"
    },
    {
      "inputs": [],
      "name": "withdrawETH",
      "outputs": [],
      "stateMutability": "nonpayable",
      "type": "function"
    },
    {
      "stateMutability": "payable",
      "type": "receive"
    }
  ],
  "bytecode": "0x6080604052674563918244f40000600555678ac7230489e8000060065534801561002857600080fd5b506040516120ec3803806120ec833981810160405281019061004a9190610426565b33600073ffffffffffffffffffffffffffffffffffffffff168173ffffffffffffffffffffffffffffffffffffffff16036100bd5760006040517f1e4fbdf70000000000000000000000000000000000000000000000000000000081526004016100b49190610462565b60405180910390fd5b6100cc816102ff60201b60201c565b506001808190555080600260006101000a81548173ffffffffffffffffffffffffffffffffffffffff021916908373ffffffffffffffffffffffffffffffffffffffff16021790555062278d004261012491906104b6565b6004819055506000600260009054906101000a900473ffffffffffffffffffffffffffffffffffffffff1673ffffffffffffffffffffffffffffffffffffffff1663313ce5676040518163ffffffff1660e01b8152600401602060405180830381865afa158015610199573d6000803e3d6000fd5b505050506040513d601f19601f820116820180604052508101906101bd9190610523565b60ff1690506000600260009054906101000a900473ffffffffffffffffffffffffffffffffffffffff1673ffffffffffffffffffffffffffffffffffffffff166318160ddd6040518163ffffffff1660e01b8152600401602060405180830381865afa158015610231573d6000803e3d6000fd5b505050506040513d601f19601f82011682018060405250810190610255919061057c565b9050600082600a61026691906106dc565b826102719190610756565b905060646032826102829190610787565b61028c9190610756565b60078190555060646019826102a19190610787565b6102ab9190610756565b6008819055506000600754116102f6576040517f08c379a00000000000000000000000000000000000000000000000000000000081526004016102ed9061084c565b60405180910390fd5b5050505061086c565b60008060009054906101000a900473ffffffffffffffffffffffffffffffffffffffff169050816000806101000a81548173ffffffffffffffffffffffffffffffffffffffff021916908373ffffffffffffffffffffffffffffffffffffffff1602179055508173ffffffffffffffffffffffffffffffffffffffff168173ffffffffffffffffffffffffffffffffffffffff167f8be0079c531659141344cd1fd0a4f28419497f9722a3daafe3b4186f6b6457e060405160405180910390a35050565b600080fd5b600073ffffffffffffffffffffffffffffffffffffffff82169050919050565b60006103f3826103c8565b9050919050565b610403816103e8565b811461040e57600080fd5b50565b600081519050610420816103fa565b92915050565b60006020828403121561043c5761043b6103c3565b5b600061044a84828501610411565b91505092915050565b61045c816103e8565b82525050565b60006020820190506104776000830184610453565b92915050565b6000819050919050565b7f4e487b7100000000000000000000000000000000000000000000000000000000600052601160045260246000fd5b60006104c18261047d565b91506104cc8361047d565b92508282019050808211156104e4576104e3610487565b5b92915050565b600060ff82169050919050565b610500816104ea565b811461050b57600080fd5b50565b60008151905061051d816104f7565b92915050565b600060208284031215610539576105386103c3565b5b60006105478482850161050e565b91505092915050565b6105598161047d565b811461056457600080fd5b50565b60008151905061057681610550565b92915050565b600060208284031215610592576105916103c3565b5b60006105a084828501610567565b91505092915050565b60008160011c9050919050565b6000808291508390505b6001851115610600578086048111156105dc576105db610487565b5b60018516156105eb5780820291505b80810290506105f9856105a9565b94506105c0565b94509492505050565b60008261061957600190506106d5565b8161062757600090506106d5565b816001811461063d576002811461064757610676565b60019150506106d5565b60ff84111561065957610658610487565b5b8360020a9150848211156106705761066f610487565b5b506106d5565b5060208310610133831016604e8410600b84101617156106ab5782820a9050838111156106a6576106a5610487565b5b6106d5565b6106b884848460016105b6565b925090508184048111156106cf576106ce610487565b5b81810290505b9392505050565b60006106e78261047d565b91506106f28361047d565b925061071f7fffffffffffffffffffffffffffffffffffffffffffffffffffffffffffffffff8484610609565b905092915050565b7f4e487b7100000000000000000000000000000000000000000000000000000000600052601260045260246000fd5b60006107618261047d565b915061076c8361047d565b92508261077c5761077b610727565b5b828204905092915050565b60006107928261047d565b915061079d8361047d565b92508282026107ab8161047d565b915082820484148315176107c2576107c1610487565b5b5092915050565b600082825260208201905092915050565b7f546f6b656e53616c653a204e6f20746f6b656e7320617661696c61626c65206660008201527f6f722073616c6500000000000000000000000000000000000000000000000000602082015250565b60006108366027836107c9565b9150610841826107da565b604082019050919050565b6000602082019050818103600083015261086581610829565b9050919050565b6118718061087b6000396000f3fe6080604052600436106101025760003560e01c8063715018a611610095578063c55d0f5611610064578063c55d0f56146102c7578063e086e5ec14610304578063ed338ff11461031b578063f2fde38b14610346578063fc0c546a1461036f57610109565b8063715018a61461022f5780638da5cb5b1461024657806391516cce14610271578063b3e7b8511461029c57610109565b80634efb991b116100d15780634efb991b14610183578063518ab2a8146101ae5780635fa17324146101d957806360219c7b1461020457610109565b80632c7b78b61461010e5780633610724e14610125578063380d831b146101415780634a3e9f201461015857610109565b3661010957005b600080fd5b34801561011a57600080fd5b5061012361039a565b005b61013f600480360381019061013a9190610f16565b61052b565b005b34801561014d57600080fd5b506101566108d8565b005b34801561016457600080fd5b5061016d610ac4565b60405161017a9190610f52565b60405180910390f35b34801561018f57600080fd5b50610198610ac9565b6040516101a59190610f52565b60405180910390f35b3480156101ba57600080fd5b506101c3610acf565b6040516101d09190610f52565b60405180910390f35b3480156101e557600080fd5b506101ee610ad5565b6040516101fb9190610f52565b60405180910390f35b34801561021057600080fd5b50610219610adb565b6040516102269190610f52565b60405180910390f35b34801561023b57600080fd5b50610244610ae1565b005b34801561025257600080fd5b5061025b610af5565b6040516102689190610fae565b60405180910390f35b34801561027d57600080fd5b50610286610b1e565b6040516102939190610f52565b60405180910390f35b3480156102a857600080fd5b506102b1610b24565b6040516102be9190610f52565b60405180910390f35b3480156102d357600080fd5b506102ee60048036038101906102e99190610f16565b610b29565b6040516102fb9190610f52565b60405180910390f35b34801561031057600080fd5b50610319610c1f565b005b34801561032757600080fd5b50610330610c87565b60405161033d9190610f52565b60405180910390f35b34801561035257600080fd5b5061036d60048036038101906103689190610ff5565b610c8d565b005b34801561037b57600080fd5b50610384610d13565b6040516103919190611081565b60405180910390f35b6103a2610d39565b600260009054906101000a900473ffffffffffffffffffffffffffffffffffffffff1673ffffffffffffffffffffffffffffffffffffffff1663313ce5676040518163ffffffff1660e01b8152600401602060405180830381865afa15801561040f573d6000803e3d6000fd5b505050506040513d601f19601f8201168201806040525081019061043391906110d5565b600a61043f9190611264565b60075461044c91906112af565b600260009054906101000a900473ffffffffffffffffffffffffffffffffffffffff1673ffffffffffffffffffffffffffffffffffffffff166370a08231306040518263ffffffff1660e01b81526004016104a79190610fae565b602060405180830381865afa1580156104c4573d6000803e3d6000fd5b505050506040513d601f19601f820116820180604052508101906104e89190611306565b1015610529576040517f08c379a0000000000000000000000000000000000000000000000000000000008152600401610520906113b6565b60405180910390fd5b565b600454421061056f576040517f08c379a000000000000000000000000000000000000000000000000000000000815260040161056690611422565b60405180910390fd5b600754600354106105b5576040517f08c379a00000000000000000000000000000000000000000000000000000000081526004016105ac906114b4565b60405180910390fd5b6105bd610dc0565b60008111610600576040517f08c379a00000000000000000000000000000000000000000000000000000000081526004016105f790611546565b60405180910390fd5b600754816003546106119190611566565b1115610652576040517f08c379a00000000000000000000000000000000000000000000000000000000081526004016106499061160c565b60405180910390fd5b60008060009050600060085460035410156106ab57600854846003546106789190611566565b11610685578391506106a6565b600354600854610695919061162c565b915081846106a3919061162c565b90505b6106af565b8390505b600654816106bd91906112af565b600554836106cb91906112af565b6106d59190611566565b9250823414610719576040517f08c379a0000000000000000000000000000000000000000000000000000000008152600401610710906116d2565b60405180910390fd5b836003600082825461072b9190611566565b92505081905550600260009054906101000a900473ffffffffffffffffffffffffffffffffffffffff1673ffffffffffffffffffffffffffffffffffffffff1663a9059cbb33600260009054906101000a900473ffffffffffffffffffffffffffffffffffffffff1673ffffffffffffffffffffffffffffffffffffffff1663313ce5676040518163ffffffff1660e01b8152600401602060405180830381865afa1580156107de573d6000803e3d6000fd5b505050506040513d601f19601f8201168201806040525081019061080291906110d5565b600a61080e9190611264565b8761081991906112af565b6040518363ffffffff1660e01b81526004016108369291906116f2565b6020604051808303816000875af1158015610855573d6000803e3d6000fd5b505050506040513d601f19601f820116820180604052508101906108799190611753565b503373ffffffffffffffffffffffffffffffffffffffff167f8fafebcaf9d154343dad25669bfa277f4fbacd7ac6b0c4fed522580e040a0f3385346040516108c2929190611780565b60405180910390a25050506108d5610e06565b50565b6108e0610d39565b600454421015806108f5575060075460035410155b610934576040517f08c379a000000000000000000000000000000000000000000000000000000000815260040161092b9061181b565b60405180910390fd5b6000600260009054906101000a900473ffffffffffffffffffffffffffffffffffffffff1673ffffffffffffffffffffffffffffffffffffffff166370a08231306040518263ffffffff1660e01b81526004016109919190610fae565b602060405180830381865afa1580156109ae573d6000803e3d6000fd5b505050506040513d601f19601f820116820180604052508101906109d29190611306565b90506000811115610a8657600260009054906101000a900473ffffffffffffffffffffffffffffffffffffffff1673ffffffffffffffffffffffffffffffffffffffff1663a9059cbb610a23610af5565b836040518363ffffffff1660e01b8152600401610a419291906116f2565b6020604051808303816000875af1158015610a60573d6000803e3d6000fd5b505050506040513d601f19601f82011682018060405250810190610a849190611753565b505b7fce4010416b0dec196298b584ceebdd43ecf89e6c03007517c3a7f4403db6c21260035442604051610ab9929190611780565b60405180910390a150565b601981565b60085481565b60035481565b60055481565b60075481565b610ae9610d39565b610af36000610e0f565b565b60008060009054906101000a900473ffffffffffffffffffffffffffffffffffffffff16905090565b60065481565b603281565b600060045442101580610b40575060075460035410155b15610b4e5760009050610c1a565b60075482600354610b5f9190611566565b1115610b8d577fffffffffffffffffffffffffffffffffffffffffffffffffffffffffffffffff9050610c1a565b600080600090506000806003549050600854811015610be6576008548682610bb59190611566565b11610bc257859250610be1565b80600854610bd0919061162c565b92508286610bde919061162c565b91505b610bea565b8591505b60065482610bf891906112af565b60055484610c0691906112af565b610c109190611566565b9350839450505050505b919050565b610c27610d39565b610c2f610dc0565b610c37610af5565b73ffffffffffffffffffffffffffffffffffffffff166108fc479081150290604051600060405180830381858888f19350505050158015610c7c573d6000803e3d6000fd5b50610c85610e06565b565b60045481565b610c95610d39565b600073ffffffffffffffffffffffffffffffffffffffff168173ffffffffffffffffffffffffffffffffffffffff1603610d075760006040517f1e4fbdf7000000000000000000000000000000000000000000000000000000008152600401610cfe9190610fae565b60405180910390fd5b610d1081610e0f565b50565b600260009054906101000a900473ffffffffffffffffffffffffffffffffffffffff1681565b610d41610ed3565b73ffffffffffffffffffffffffffffffffffffffff16610d5f610af5565b73ffffffffffffffffffffffffffffffffffffffff1614610dbe57610d82610ed3565b6040517f118cdaa7000000000000000000000000000000000000000000000000000000008152600401610db59190610fae565b60405180910390fd5b565b600260015403610dfc576040517f3ee5aeb500000000000000000000000000000000000000000000000000000000815260040160405180910390fd5b6002600181905550565b60018081905550565b60008060009054906101000a900473ffffffffffffffffffffffffffffffffffffffff169050816000806101000a81548173ffffffffffffffffffffffffffffffffffffffff021916908373ffffffffffffffffffffffffffffffffffffffff1602179055508173ffffffffffffffffffffffffffffffffffffffff168173ffffffffffffffffffffffffffffffffffffffff167f8be0079c531659141344cd1fd0a4f28419497f9722a3daafe3b4186f6b6457e060405160405180910390a35050565b600033905090565b600080fd5b6000819050919050565b610ef381610ee0565b8114610efe57600080fd5b50565b600081359050610f1081610eea565b92915050565b600060208284031215610f2c57610f2b610edb565b5b6000610f3a84828501610f01565b91505092915050565b610f4c81610ee0565b82525050565b6000602082019050610f676000830184610f43565b92915050565b600073ffffffffffffffffffffffffffffffffffffffff82169050919050565b6000610f9882610f6d565b9050919050565b610fa881610f8d565b82525050565b6000602082019050610fc36000830184610f9f565b92915050565b610fd281610f8d565b8114610fdd57600080fd5b50565b600081359050610fef81610fc9565b92915050565b60006020828403121561100b5761100a610edb565b5b600061101984828501610fe0565b91505092915050565b6000819050919050565b600061104761104261103d84610f6d565b611022565b610f6d565b9050919050565b60006110598261102c565b9050919050565b600061106b8261104e565b9050919050565b61107b81611060565b82525050565b60006020820190506110966000830184611072565b92915050565b600060ff82169050919050565b6110b28161109c565b81146110bd57600080fd5b50565b6000815190506110cf816110a9565b92915050565b6000602082840312156110eb576110ea610edb565b5b60006110f9848285016110c0565b91505092915050565b7f4e487b7100000000000000000000000000000000000000000000000000000000600052601160045260246000fd5b60008160011c9050919050565b6000808291508390505b60018511156111885780860481111561116457611163611102565b5b60018516156111735780820291505b808102905061118185611131565b9450611148565b94509492505050565b6000826111a1576001905061125d565b816111af576000905061125d565b81600181146111c557600281146111cf576111fe565b600191505061125d565b60ff8411156111e1576111e0611102565b5b8360020a9150848211156111f8576111f7611102565b5b5061125d565b5060208310610133831016604e8410600b84101617156112335782820a90508381111561122e5761122d611102565b5b61125d565b611240848484600161113e565b9250905081840481111561125757611256611102565b5b81810290505b9392505050565b600061126f82610ee0565b915061127a8361109c565b92506112a77fffffffffffffffffffffffffffffffffffffffffffffffffffffffffffffffff8484611191565b905092915050565b60006112ba82610ee0565b91506112c583610ee0565b92508282026112d381610ee0565b915082820484148315176112ea576112e9611102565b5b5092915050565b60008151905061130081610eea565b92915050565b60006020828403121561131c5761131b610edb565b5b600061132a848285016112f1565b91505092915050565b600082825260208201905092915050565b7f546f6b656e53616c653a20496e73756666696369656e7420746f6b656e20626160008201527f6c616e636520696e2073616c6520636f6e747261637400000000000000000000602082015250565b60006113a0603683611333565b91506113ab82611344565b604082019050919050565b600060208201905081810360008301526113cf81611393565b9050919050565b7f546f6b656e53616c653a2053616c652068617320656e64656400000000000000600082015250565b600061140c601983611333565b9150611417826113d6565b602082019050919050565b6000602082019050818103600083015261143b816113ff565b9050919050565b7f546f6b656e53616c653a20416c6c20746f6b656e7320666f722073616c65206860008201527f617665206265656e20736f6c6400000000000000000000000000000000000000602082015250565b600061149e602d83611333565b91506114a982611442565b604082019050919050565b600060208201905081810360008301526114cd81611491565b9050919050565b7f546f6b656e53616c653a204d75737420627579206174206c65617374206f6e6560008201527f20746f6b656e0000000000000000000000000000000000000000000000000000602082015250565b6000611530602683611333565b915061153b826114d4565b604082019050919050565b6000602082019050818103600083015261155f81611523565b9050919050565b600061157182610ee0565b915061157c83610ee0565b925082820190508082111561159457611593611102565b5b92915050565b7f546f6b656e53616c653a204e6f7420656e6f75676820746f6b656e73206c656660008201527f7420666f72207468697320707572636861736500000000000000000000000000602082015250565b60006115f6603383611333565b91506116018261159a565b604082019050919050565b60006020820190508181036000830152611625816115e9565b9050919050565b600061163782610ee0565b915061164283610ee0565b925082820390508181111561165a57611659611102565b5b92915050565b7f546f6b656e53616c653a20496e636f72726563742045544820616d6f756e742060008201527f73656e7400000000000000000000000000000000000000000000000000000000602082015250565b60006116bc602483611333565b91506116c782611660565b604082019050919050565b600060208201905081810360008301526116eb816116af565b9050919050565b60006040820190506117076000830185610f9f565b6117146020830184610f43565b9392505050565b60008115159050919050565b6117308161171b565b811461173b57600080fd5b50565b60008151905061174d81611727565b92915050565b60006020828403121561176957611768610edb565b5b60006117778482850161173e565b91505092915050565b60006040820190506117956000830185610f43565b6117a26020830184610f43565b9392505050565b7f546f6b656e53616c653a2053616c652063616e6e6f7420626520656e6465642060008201527f7965740000000000000000000000000000000000000000000000000000000000602082015250565b6000611805602383611333565b9150611810826117a9565b604082019050919050565b60006020820190508181036000830152611834816117f8565b905091905056fea2646970667358221220b62af2bfe526e3503652fd9101cbbeb27f5bc139c0042c114632387ceeea6bf864736f6c634300081a0033",
  "linkReferences": {},
  "deployedLinkReferences": {}
}