{
  "_format": "hh-sol-artifact-1",
  "contractName": "UserTokenExchange",
  "sourceName": "contracts/GiangTokenExchange.sol",
  "abi": [
    {
      "inputs": [
        {
          "internalType": "address",
          "name": "tokenAddress",
          "type": "address"
        },
        {
          "internalType": "address",
          "name": "initialExchangeOwner",
          "type": "address"
        },
        {
          "internalType": "uint8",
          "name": "_tokenDecimals",
          "type": "uint8"
        }
      ],
      "stateMutability": "nonpayable",
      "type": "constructor"
    },
    {
      "inputs": [
        {
          "internalType": "address",
          "name": "owner",
          "type": "address"
        }
      ],
      "name": "OwnableInvalidOwner",
      "type": "error"
    },
    {
      "inputs": [
        {
          "internalType": "address",
          "name": "account",
          "type": "address"
        }
      ],
      "name": "OwnableUnauthorizedAccount",
      "type": "error"
    },
    {
      "inputs": [],
      "name": "ReentrancyGuardReentrantCall",
      "type": "error"
    },
    {
      "anonymous": false,
      "inputs": [
        {
          "indexed": true,
          "internalType": "address",
          "name": "owner",
          "type": "address"
        },
        {
          "indexed": false,
          "internalType": "uint256",
          "name": "amountInWei",
          "type": "uint256"
        }
      ],
      "name": "EthDepositedByOwner",
      "type": "event"
    },
    {
      "anonymous": false,
      "inputs": [
        {
          "indexed": true,
          "internalType": "address",
          "name": "owner",
          "type": "address"
        },
        {
          "indexed": false,
          "internalType": "uint256",
          "name": "amountInWei",
          "type": "uint256"
        }
      ],
      "name": "EthWithdrawnByOwner",
      "type": "event"
    },
    {
      "anonymous": false,
      "inputs": [
        {
          "indexed": true,
          "internalType": "address",
          "name": "previousOwner",
          "type": "address"
        },
        {
          "indexed": true,
          "internalType": "address",
          "name": "newOwner",
          "type": "address"
        }
      ],
      "name": "OwnershipTransferred",
      "type": "event"
    },
    {
      "anonymous": false,
      "inputs": [
        {
          "indexed": false,
          "internalType": "uint256",
          "name": "newPriceInWei",
          "type": "uint256"
        },
        {
          "indexed": false,
          "internalType": "uint256",
          "name": "timestamp",
          "type": "uint256"
        }
      ],
      "name": "PriceUpdated",
      "type": "event"
    },
    {
      "anonymous": false,
      "inputs": [
        {
          "indexed": true,
          "internalType": "address",
          "name": "buyer",
          "type": "address"
        },
        {
          "indexed": false,
          "internalType": "uint256",
          "name": "amountWholeTokens",
          "type": "uint256"
        },
        {
          "indexed": false,
          "internalType": "uint256",
          "name": "costInWei",
          "type": "uint256"
        }
      ],
      "name": "TokensBought",
      "type": "event"
    },
    {
      "anonymous": false,
      "inputs": [
        {
          "indexed": true,
          "internalType": "address",
          "name": "seller",
          "type": "address"
        },
        {
          "indexed": false,
          "internalType": "uint256",
          "name": "amountWholeTokens",
          "type": "uint256"
        },
        {
          "indexed": false,
          "internalType": "uint256",
          "name": "ethReceivedInWei",
          "type": "uint256"
        }
      ],
      "name": "TokensSold",
      "type": "event"
    },
    {
      "inputs": [],
      "name": "GiangToken",
      "outputs": [
        {
          "internalType": "contract IERC20",
          "name": "",
          "type": "address"
        }
      ],
      "stateMutability": "view",
      "type": "function"
    },
    {
      "inputs": [
        {
          "internalType": "uint256",
          "name": "numberOfWholeTokensToBuy",
          "type": "uint256"
        }
      ],
      "name": "buyTokens",
      "outputs": [],
      "stateMutability": "payable",
      "type": "function"
    },
    {
      "inputs": [],
      "name": "currentTokenPrice",
      "outputs": [
        {
          "internalType": "uint256",
          "name": "",
          "type": "uint256"
        }
      ],
      "stateMutability": "view",
      "type": "function"
    },
    {
      "inputs": [],
      "name": "depositEthByOwner",
      "outputs": [],
      "stateMutability": "payable",
      "type": "function"
    },
    {
      "inputs": [],
      "name": "getCurrentCalculatedPrice",
      "outputs": [
        {
          "internalType": "uint256",
          "name": "",
          "type": "uint256"
        }
      ],
      "stateMutability": "view",
      "type": "function"
    },
    {
      "inputs": [],
      "name": "lastPriceUpdateTime",
      "outputs": [
        {
          "internalType": "uint256",
          "name": "",
          "type": "uint256"
        }
      ],
      "stateMutability": "view",
      "type": "function"
    },
    {
      "inputs": [],
      "name": "owner",
      "outputs": [
        {
          "internalType": "address",
          "name": "",
          "type": "address"
        }
      ],
      "stateMutability": "view",
      "type": "function"
    },
    {
      "inputs": [],
      "name": "renounceOwnership",
      "outputs": [],
      "stateMutability": "nonpayable",
      "type": "function"
    },
    {
      "inputs": [
        {
          "internalType": "uint256",
          "name": "numberOfWholeTokensToSell",
          "type": "uint256"
        }
      ],
      "name": "sellTokens",
      "outputs": [],
      "stateMutability": "nonpayable",
      "type": "function"
    },
    {
      "inputs": [],
      "name": "tokenDecimals",
      "outputs": [
        {
          "internalType": "uint8",
          "name": "",
          "type": "uint8"
        }
      ],
      "stateMutability": "view",
      "type": "function"
    },
    {
      "inputs": [
        {
          "internalType": "address",
          "name": "newOwner",
          "type": "address"
        }
      ],
      "name": "transferOwnership",
      "outputs": [],
      "stateMutability": "nonpayable",
      "type": "function"
    },
    {
      "inputs": [
        {
          "internalType": "uint256",
          "name": "amountInWei",
          "type": "uint256"
        }
      ],
      "name": "withdrawEthByOwner",
      "outputs": [],
      "stateMutability": "nonpayable",
      "type": "function"
    },
    {
      "stateMutability": "payable",
      "type": "receive"
    }
  ],
  "bytecode": "0x60c060405234801561001057600080fd5b50604051611a3d380380611a3d833981810160405281019061003291906102c5565b81600073ffffffffffffffffffffffffffffffffffffffff168173ffffffffffffffffffffffffffffffffffffffff16036100a55760006040517f1e4fbdf700000000000000000000000000000000000000000000000000000000815260040161009c9190610327565b60405180910390fd5b6100b48161016560201b60201c565b50600180819055508273ffffffffffffffffffffffffffffffffffffffff1660808173ffffffffffffffffffffffffffffffffffffffff16815250508060ff1660a08160ff1681525050670de0b6b3a76400006005610113919061037b565b600281905550426003819055507f945c1c4e99aa89f648fbfe3df471b916f719e16d960fcec0737d4d56bd6968386002546003546040516101559291906103cc565b60405180910390a15050506103f5565b60008060009054906101000a900473ffffffffffffffffffffffffffffffffffffffff169050816000806101000a81548173ffffffffffffffffffffffffffffffffffffffff021916908373ffffffffffffffffffffffffffffffffffffffff1602179055508173ffffffffffffffffffffffffffffffffffffffff168173ffffffffffffffffffffffffffffffffffffffff167f8be0079c531659141344cd1fd0a4f28419497f9722a3daafe3b4186f6b6457e060405160405180910390a35050565b600080fd5b600073ffffffffffffffffffffffffffffffffffffffff82169050919050565b60006102598261022e565b9050919050565b6102698161024e565b811461027457600080fd5b50565b60008151905061028681610260565b92915050565b600060ff82169050919050565b6102a28161028c565b81146102ad57600080fd5b50565b6000815190506102bf81610299565b92915050565b6000806000606084860312156102de576102dd610229565b5b60006102ec86828701610277565b93505060206102fd86828701610277565b925050604061030e868287016102b0565b9150509250925092565b6103218161024e565b82525050565b600060208201905061033c6000830184610318565b92915050565b6000819050919050565b7f4e487b7100000000000000000000000000000000000000000000000000000000600052601160045260246000fd5b600061038682610342565b915061039183610342565b925082820261039f81610342565b915082820484148315176103b6576103b561034c565b5b5092915050565b6103c681610342565b82525050565b60006040820190506103e160008301856103bd565b6103ee60208301846103bd565b9392505050565b60805160a05161160061043d600039600081816103280152818161058e015261060e0152600081816103b7015281816104920152818161069d01526107fc01526116006000f3fe6080604052600436106100ab5760003560e01c806371b3659e1161006457806371b3659e1461017357806384be52e01461019e5780638da5cb5b146101c9578063a2dced08146101f4578063ee6545e51461021d578063f2fde38b14610248576100b2565b806311dffc1a146100b75780633610724e146100c15780633b97e856146100dd57806349b9a7af146101085780636c11bcd314610133578063715018a61461015c576100b2565b366100b257005b600080fd5b6100bf610271565b005b6100db60048036038101906100d69190610d41565b6102d0565b005b3480156100e957600080fd5b506100f261058c565b6040516100ff9190610d8a565b60405180910390f35b34801561011457600080fd5b5061011d6105b0565b60405161012a9190610db4565b60405180910390f35b34801561013f57600080fd5b5061015a60048036038101906101559190610d41565b6105b6565b005b34801561016857600080fd5b506101716107e0565b005b34801561017f57600080fd5b506101886107f4565b6040516101959190610db4565b60405180910390f35b3480156101aa57600080fd5b506101b36107fa565b6040516101c09190610e4e565b60405180910390f35b3480156101d557600080fd5b506101de61081e565b6040516101eb9190610e8a565b60405180910390f35b34801561020057600080fd5b5061021b60048036038101906102169190610d41565b610847565b005b34801561022957600080fd5b50610232610948565b60405161023f9190610db4565b60405180910390f35b34801561025457600080fd5b5061026f600480360381019061026a9190610ed1565b6109ee565b005b610279610a74565b61028161081e565b73ffffffffffffffffffffffffffffffffffffffff167ff432b23411dd3d4a6dc0afe2f69d4842db780a424cd609030d8ad8bad6c54490346040516102c69190610db4565b60405180910390a2565b6102d8610afb565b6000811161031b576040517f08c379a000000000000000000000000000000000000000000000000000000000815260040161031290610f5b565b60405180910390fd5b610323610b41565b5060007f0000000000000000000000000000000000000000000000000000000000000000600a61035391906110dd565b8261035e9190611128565b90506000600254836103709190611128565b90508034146103b4576040517f08c379a00000000000000000000000000000000000000000000000000000000081526004016103ab906111b6565b60405180910390fd5b817f000000000000000000000000000000000000000000000000000000000000000073ffffffffffffffffffffffffffffffffffffffff166370a08231306040518263ffffffff1660e01b815260040161040e9190610e8a565b602060405180830381865afa15801561042b573d6000803e3d6000fd5b505050506040513d601f19601f8201168201806040525081019061044f91906111eb565b1015610490576040517f08c379a000000000000000000000000000000000000000000000000000000000815260040161048790611264565b60405180910390fd5b7f000000000000000000000000000000000000000000000000000000000000000073ffffffffffffffffffffffffffffffffffffffff1663a9059cbb33846040518363ffffffff1660e01b81526004016104eb929190611284565b6020604051808303816000875af115801561050a573d6000803e3d6000fd5b505050506040513d601f19601f8201168201806040525081019061052e91906112e5565b503373ffffffffffffffffffffffffffffffffffffffff167f8442948036198f1146d3a63c3db355d7e0295c2cc5676c755990445da4fdc1c98434604051610577929190611312565b60405180910390a25050610589610c31565b50565b7f000000000000000000000000000000000000000000000000000000000000000081565b60035481565b6105be610afb565b60008111610601576040517f08c379a00000000000000000000000000000000000000000000000000000000081526004016105f890611387565b60405180910390fd5b610609610b41565b5060007f0000000000000000000000000000000000000000000000000000000000000000600a61063991906110dd565b826106449190611128565b90506000600254836106569190611128565b90508047101561069b576040517f08c379a000000000000000000000000000000000000000000000000000000000815260040161069290611419565b60405180910390fd5b7f000000000000000000000000000000000000000000000000000000000000000073ffffffffffffffffffffffffffffffffffffffff166323b872dd3330856040518463ffffffff1660e01b81526004016106f893929190611439565b6020604051808303816000875af1158015610717573d6000803e3d6000fd5b505050506040513d601f19601f8201168201806040525081019061073b91906112e5565b503373ffffffffffffffffffffffffffffffffffffffff166108fc829081150290604051600060405180830381858888f19350505050158015610782573d6000803e3d6000fd5b503373ffffffffffffffffffffffffffffffffffffffff167f2dcf9433d75db0d8b1c172641f85e319ffe4ad22e108a95d1847ceb906e5195d84836040516107cb929190611312565b60405180910390a250506107dd610c31565b50565b6107e8610a74565b6107f26000610c3a565b565b60025481565b7f000000000000000000000000000000000000000000000000000000000000000081565b60008060009054906101000a900473ffffffffffffffffffffffffffffffffffffffff16905090565b61084f610a74565b610857610afb565b8047101561089a576040517f08c379a0000000000000000000000000000000000000000000000000000000008152600401610891906114e2565b60405180910390fd5b6108a261081e565b73ffffffffffffffffffffffffffffffffffffffff166108fc829081150290604051600060405180830381858888f193505050501580156108e7573d6000803e3d6000fd5b506108f061081e565b73ffffffffffffffffffffffffffffffffffffffff167f5e48be4e69871791aa4283cc896a236fbcb33fa4462b9eb664bc009308b462a8826040516109359190610db4565b60405180910390a2610945610c31565b50565b6000806002549050600062015180600354426109649190611502565b61096e9190611565565b905060008111156109e6576000670de0b6b3a76400004761098f9190611565565b9050610e428211156109a157610e4291505b60005b828110156109e357620186a082620186a06109bf9190611596565b856109ca9190611128565b6109d49190611565565b935080806001019150506109a4565b50505b819250505090565b6109f6610a74565b600073ffffffffffffffffffffffffffffffffffffffff168173ffffffffffffffffffffffffffffffffffffffff1603610a685760006040517f1e4fbdf7000000000000000000000000000000000000000000000000000000008152600401610a5f9190610e8a565b60405180910390fd5b610a7181610c3a565b50565b610a7c610cfe565b73ffffffffffffffffffffffffffffffffffffffff16610a9a61081e565b73ffffffffffffffffffffffffffffffffffffffff1614610af957610abd610cfe565b6040517f118cdaa7000000000000000000000000000000000000000000000000000000008152600401610af09190610e8a565b60405180910390fd5b565b600260015403610b37576040517f3ee5aeb500000000000000000000000000000000000000000000000000000000815260040160405180910390fd5b6002600181905550565b6000806201518060035442610b569190611502565b610b609190611565565b90506000811115610c285760004790506000670de0b6b3a764000082610b869190611565565b9050610e42831115610b9857610e4292505b60005b83811015610be057620186a082620186a0610bb69190611596565b600254610bc39190611128565b610bcd9190611565565b6002819055508080600101915050610b9b565b50426003819055507f945c1c4e99aa89f648fbfe3df471b916f719e16d960fcec0737d4d56bd696838600254600354604051610c1d929190611312565b60405180910390a150505b60025491505090565b60018081905550565b60008060009054906101000a900473ffffffffffffffffffffffffffffffffffffffff169050816000806101000a81548173ffffffffffffffffffffffffffffffffffffffff021916908373ffffffffffffffffffffffffffffffffffffffff1602179055508173ffffffffffffffffffffffffffffffffffffffff168173ffffffffffffffffffffffffffffffffffffffff167f8be0079c531659141344cd1fd0a4f28419497f9722a3daafe3b4186f6b6457e060405160405180910390a35050565b600033905090565b600080fd5b6000819050919050565b610d1e81610d0b565b8114610d2957600080fd5b50565b600081359050610d3b81610d15565b92915050565b600060208284031215610d5757610d56610d06565b5b6000610d6584828501610d2c565b91505092915050565b600060ff82169050919050565b610d8481610d6e565b82525050565b6000602082019050610d9f6000830184610d7b565b92915050565b610dae81610d0b565b82525050565b6000602082019050610dc96000830184610da5565b92915050565b600073ffffffffffffffffffffffffffffffffffffffff82169050919050565b6000819050919050565b6000610e14610e0f610e0a84610dcf565b610def565b610dcf565b9050919050565b6000610e2682610df9565b9050919050565b6000610e3882610e1b565b9050919050565b610e4881610e2d565b82525050565b6000602082019050610e636000830184610e3f565b92915050565b6000610e7482610dcf565b9050919050565b610e8481610e69565b82525050565b6000602082019050610e9f6000830184610e7b565b92915050565b610eae81610e69565b8114610eb957600080fd5b50565b600081359050610ecb81610ea5565b92915050565b600060208284031215610ee757610ee6610d06565b5b6000610ef584828501610ebc565b91505092915050565b600082825260208201905092915050565b7f4d75737420627579206174206c65617374206f6e6520746f6b656e0000000000600082015250565b6000610f45601b83610efe565b9150610f5082610f0f565b602082019050919050565b60006020820190508181036000830152610f7481610f38565b9050919050565b7f4e487b7100000000000000000000000000000000000000000000000000000000600052601160045260246000fd5b60008160011c9050919050565b6000808291508390505b600185111561100157808604811115610fdd57610fdc610f7b565b5b6001851615610fec5780820291505b8081029050610ffa85610faa565b9450610fc1565b94509492505050565b60008261101a57600190506110d6565b8161102857600090506110d6565b816001811461103e576002811461104857611077565b60019150506110d6565b60ff84111561105a57611059610f7b565b5b8360020a91508482111561107157611070610f7b565b5b506110d6565b5060208310610133831016604e8410600b84101617156110ac5782820a9050838111156110a7576110a6610f7b565b5b6110d6565b6110b98484846001610fb7565b925090508184048111156110d0576110cf610f7b565b5b81810290505b9392505050565b60006110e882610d0b565b91506110f383610d6e565b92506111207fffffffffffffffffffffffffffffffffffffffffffffffffffffffffffffffff848461100a565b905092915050565b600061113382610d0b565b915061113e83610d0b565b925082820261114c81610d0b565b9150828204841483151761116357611162610f7b565b5b5092915050565b7f496e636f7272656374204554482073656e7420666f7220707572636861736500600082015250565b60006111a0601f83610efe565b91506111ab8261116a565b602082019050919050565b600060208201905081810360008301526111cf81611193565b9050919050565b6000815190506111e581610d15565b92915050565b60006020828403121561120157611200610d06565b5b600061120f848285016111d6565b91505092915050565b7f45786368616e6765206f7574206f6620746f6b656e7300000000000000000000600082015250565b600061124e601683610efe565b915061125982611218565b602082019050919050565b6000602082019050818103600083015261127d81611241565b9050919050565b60006040820190506112996000830185610e7b565b6112a66020830184610da5565b9392505050565b60008115159050919050565b6112c2816112ad565b81146112cd57600080fd5b50565b6000815190506112df816112b9565b92915050565b6000602082840312156112fb576112fa610d06565b5b6000611309848285016112d0565b91505092915050565b60006040820190506113276000830185610da5565b6113346020830184610da5565b9392505050565b7f4d7573742073656c6c206174206c65617374206f6e6520746f6b656e00000000600082015250565b6000611371601c83610efe565b915061137c8261133b565b602082019050919050565b600060208201905081810360008301526113a081611364565b9050919050565b7f45786368616e67652068617320696e73756666696369656e742045544820666f60008201527f72206275796261636b0000000000000000000000000000000000000000000000602082015250565b6000611403602983610efe565b915061140e826113a7565b604082019050919050565b60006020820190508181036000830152611432816113f6565b9050919050565b600060608201905061144e6000830186610e7b565b61145b6020830185610e7b565b6114686040830184610da5565b949350505050565b7f496e73756666696369656e742045544820696e20636f6e747261637420746f2060008201527f7769746864726177000000000000000000000000000000000000000000000000602082015250565b60006114cc602883610efe565b91506114d782611470565b604082019050919050565b600060208201905081810360008301526114fb816114bf565b9050919050565b600061150d82610d0b565b915061151883610d0b565b92508282039050818111156115305761152f610f7b565b5b92915050565b7f4e487b7100000000000000000000000000000000000000000000000000000000600052601260045260246000fd5b600061157082610d0b565b915061157b83610d0b565b92508261158b5761158a611536565b5b828204905092915050565b60006115a182610d0b565b91506115ac83610d0b565b92508282019050808211156115c4576115c3610f7b565b5b9291505056fea264697066735822122004456ee0cc002048c9f520b4fd3768c934f04cc48f348fe6e51f03765b4c432d64736f6c634300081a0033",
  "linkReferences": {},
  "deployedLinkReferences": {}
}