{
  "_format": "hh-sol-artifact-1",
  "contractName": "GiangToken",
  "sourceName": "contracts/GiangToken.sol",
  "abi": [
    {
      "inputs": [
        {
          "internalType": "string",
          "name": "tokenName",
          "type": "string"
        },
        {
          "internalType": "string",
          "name": "tokenSymbol",
          "type": "string"
        },
        {
          "internalType": "address",
          "name": "initialTokenOwner",
          "type": "address"
        }
      ],
      "stateMutability": "nonpayable",
      "type": "constructor"
    },
    {
      "inputs": [
        {
          "internalType": "address",
          "name": "spender",
          "type": "address"
        },
        {
          "internalType": "uint256",
          "name": "allowance",
          "type": "uint256"
        },
        {
          "internalType": "uint256",
          "name": "needed",
          "type": "uint256"
        }
      ],
      "name": "ERC20InsufficientAllowance",
      "type": "error"
    },
    {
      "inputs": [
        {
          "internalType": "address",
          "name": "sender",
          "type": "address"
        },
        {
          "internalType": "uint256",
          "name": "balance",
          "type": "uint256"
        },
        {
          "internalType": "uint256",
          "name": "needed",
          "type": "uint256"
        }
      ],
      "name": "ERC20InsufficientBalance",
      "type": "error"
    },
    {
      "inputs": [
        {
          "internalType": "address",
          "name": "approver",
          "type": "address"
        }
      ],
      "name": "ERC20InvalidApprover",
      "type": "error"
    },
    {
      "inputs": [
        {
          "internalType": "address",
          "name": "receiver",
          "type": "address"
        }
      ],
      "name": "ERC20InvalidReceiver",
      "type": "error"
    },
    {
      "inputs": [
        {
          "internalType": "address",
          "name": "sender",
          "type": "address"
        }
      ],
      "name": "ERC20InvalidSender",
      "type": "error"
    },
    {
      "inputs": [
        {
          "internalType": "address",
          "name": "spender",
          "type": "address"
        }
      ],
      "name": "ERC20InvalidSpender",
      "type": "error"
    },
    {
      "inputs": [
        {
          "internalType": "address",
          "name": "owner",
          "type": "address"
        }
      ],
      "name": "OwnableInvalidOwner",
      "type": "error"
    },
    {
      "inputs": [
        {
          "internalType": "address",
          "name": "account",
          "type": "address"
        }
      ],
      "name": "OwnableUnauthorizedAccount",
      "type": "error"
    },
    {
      "anonymous": false,
      "inputs": [
        {
          "indexed": true,
          "internalType": "address",
          "name": "owner",
          "type": "address"
        },
        {
          "indexed": true,
          "internalType": "address",
          "name": "spender",
          "type": "address"
        },
        {
          "indexed": false,
          "internalType": "uint256",
          "name": "value",
          "type": "uint256"
        }
      ],
      "name": "Approval",
      "type": "event"
    },
    {
      "anonymous": false,
      "inputs": [
        {
          "indexed": true,
          "internalType": "address",
          "name": "previousOwner",
          "type": "address"
        },
        {
          "indexed": true,
          "internalType": "address",
          "name": "newOwner",
          "type": "address"
        }
      ],
      "name": "OwnershipTransferred",
      "type": "event"
    },
    {
      "anonymous": false,
      "inputs": [
        {
          "indexed": true,
          "internalType": "address",
          "name": "from",
          "type": "address"
        },
        {
          "indexed": true,
          "internalType": "address",
          "name": "to",
          "type": "address"
        },
        {
          "indexed": false,
          "internalType": "uint256",
          "name": "value",
          "type": "uint256"
        }
      ],
      "name": "Transfer",
      "type": "event"
    },
    {
      "inputs": [],
      "name": "TOTAL_SUPPLY_WHOLE_TOKENS",
      "outputs": [
        {
          "internalType": "uint256",
          "name": "",
          "type": "uint256"
        }
      ],
      "stateMutability": "view",
      "type": "function"
    },
    {
      "inputs": [
        {
          "internalType": "address",
          "name": "owner",
          "type": "address"
        },
        {
          "internalType": "address",
          "name": "spender",
          "type": "address"
        }
      ],
      "name": "allowance",
      "outputs": [
        {
          "internalType": "uint256",
          "name": "",
          "type": "uint256"
        }
      ],
      "stateMutability": "view",
      "type": "function"
    },
    {
      "inputs": [
        {
          "internalType": "address",
          "name": "spender",
          "type": "address"
        },
        {
          "internalType": "uint256",
          "name": "value",
          "type": "uint256"
        }
      ],
      "name": "approve",
      "outputs": [
        {
          "internalType": "bool",
          "name": "",
          "type": "bool"
        }
      ],
      "stateMutability": "nonpayable",
      "type": "function"
    },
    {
      "inputs": [
        {
          "internalType": "address",
          "name": "account",
          "type": "address"
        }
      ],
      "name": "balanceOf",
      "outputs": [
        {
          "internalType": "uint256",
          "name": "",
          "type": "uint256"
        }
      ],
      "stateMutability": "view",
      "type": "function"
    },
    {
      "inputs": [],
      "name": "decimals",
      "outputs": [
        {
          "internalType": "uint8",
          "name": "",
          "type": "uint8"
        }
      ],
      "stateMutability": "view",
      "type": "function"
    },
    {
      "inputs": [],
      "name": "name",
      "outputs": [
        {
          "internalType": "string",
          "name": "",
          "type": "string"
        }
      ],
      "stateMutability": "view",
      "type": "function"
    },
    {
      "inputs": [],
      "name": "owner",
      "outputs": [
        {
          "internalType": "address",
          "name": "",
          "type": "address"
        }
      ],
      "stateMutability": "view",
      "type": "function"
    },
    {
      "inputs": [],
      "name": "renounceOwnership",
      "outputs": [],
      "stateMutability": "nonpayable",
      "type": "function"
    },
    {
      "inputs": [],
      "name": "symbol",
      "outputs": [
        {
          "internalType": "string",
          "name": "",
          "type": "string"
        }
      ],
      "stateMutability": "view",
      "type": "function"
    },
    {
      "inputs": [],
      "name": "totalSupply",
      "outputs": [
        {
          "internalType": "uint256",
          "name": "",
          "type": "uint256"
        }
      ],
      "stateMutability": "view",
      "type": "function"
    },
    {
      "inputs": [
        {
          "internalType": "address",
          "name": "to",
          "type": "address"
        },
        {
          "internalType": "uint256",
          "name": "value",
          "type": "uint256"
        }
      ],
      "name": "transfer",
      "outputs": [
        {
          "internalType": "bool",
          "name": "",
          "type": "bool"
        }
      ],
      "stateMutability": "nonpayable",
      "type": "function"
    },
    {
      "inputs": [
        {
          "internalType": "address",
          "name": "from",
          "type": "address"
        },
        {
          "internalType": "address",
          "name": "to",
          "type": "address"
        },
        {
          "internalType": "uint256",
          "name": "value",
          "type": "uint256"
        }
      ],
      "name": "transferFrom",
      "outputs": [
        {
          "internalType": "bool",
          "name": "",
          "type": "bool"
        }
      ],
      "stateMutability": "nonpayable",
      "type": "function"
    },
    {
      "inputs": [
        {
          "internalType": "address",
          "name": "newOwner",
          "type": "address"
        }
      ],
      "name": "transferOwnership",
      "outputs": [],
      "stateMutability": "nonpayable",
      "type": "function"
    }
  ],
  "bytecode": "0x608060405234801561001057600080fd5b50604051611db7380380611db783398181016040528101906100329190610670565b8083838160039081610044919061091c565b508060049081610054919061091c565b505050600073ffffffffffffffffffffffffffffffffffffffff168173ffffffffffffffffffffffffffffffffffffffff16036100c95760006040517f1e4fbdf70000000000000000000000000000000000000000000000000000000081526004016100c091906109fd565b60405180910390fd5b6100d88161012160201b60201c565b5060006100e96101e760201b60201c565b60ff1690506101188282600a6100ff9190610b7a565b620186a061010d9190610bc5565b6101f060201b60201c565b50505050610c9c565b6000600560009054906101000a900473ffffffffffffffffffffffffffffffffffffffff16905081600560006101000a81548173ffffffffffffffffffffffffffffffffffffffff021916908373ffffffffffffffffffffffffffffffffffffffff1602179055508173ffffffffffffffffffffffffffffffffffffffff168173ffffffffffffffffffffffffffffffffffffffff167f8be0079c531659141344cd1fd0a4f28419497f9722a3daafe3b4186f6b6457e060405160405180910390a35050565b60006012905090565b600073ffffffffffffffffffffffffffffffffffffffff168273ffffffffffffffffffffffffffffffffffffffff16036102625760006040517fec442f0500000000000000000000000000000000000000000000000000000000815260040161025991906109fd565b60405180910390fd5b6102746000838361027860201b60201c565b5050565b600073ffffffffffffffffffffffffffffffffffffffff168373ffffffffffffffffffffffffffffffffffffffff16036102ca5780600260008282546102be9190610c07565b9250508190555061039d565b60008060008573ffffffffffffffffffffffffffffffffffffffff1673ffffffffffffffffffffffffffffffffffffffff16815260200190815260200160002054905081811015610356578381836040517fe450d38c00000000000000000000000000000000000000000000000000000000815260040161034d93929190610c4a565b60405180910390fd5b8181036000808673ffffffffffffffffffffffffffffffffffffffff1673ffffffffffffffffffffffffffffffffffffffff16815260200190815260200160002081905550505b600073ffffffffffffffffffffffffffffffffffffffff168273ffffffffffffffffffffffffffffffffffffffff16036103e65780600260008282540392505081905550610433565b806000808473ffffffffffffffffffffffffffffffffffffffff1673ffffffffffffffffffffffffffffffffffffffff168152602001908152602001600020600082825401925050819055505b8173ffffffffffffffffffffffffffffffffffffffff168373ffffffffffffffffffffffffffffffffffffffff167fddf252ad1be2c89b69c2b068fc378daa952ba7f163c4a11628f55a4df523b3ef836040516104909190610c81565b60405180910390a3505050565b6000604051905090565b600080fd5b600080fd5b600080fd5b600080fd5b6000601f19601f8301169050919050565b7f4e487b7100000000000000000000000000000000000000000000000000000000600052604160045260246000fd5b610504826104bb565b810181811067ffffffffffffffff82111715610523576105226104cc565b5b80604052505050565b600061053661049d565b905061054282826104fb565b919050565b600067ffffffffffffffff821115610562576105616104cc565b5b61056b826104bb565b9050602081019050919050565b60005b8381101561059657808201518184015260208101905061057b565b60008484015250505050565b60006105b56105b084610547565b61052c565b9050828152602081018484840111156105d1576105d06104b6565b5b6105dc848285610578565b509392505050565b600082601f8301126105f9576105f86104b1565b5b81516106098482602086016105a2565b91505092915050565b600073ffffffffffffffffffffffffffffffffffffffff82169050919050565b600061063d82610612565b9050919050565b61064d81610632565b811461065857600080fd5b50565b60008151905061066a81610644565b92915050565b600080600060608486031215610689576106886104a7565b5b600084015167ffffffffffffffff8111156106a7576106a66104ac565b5b6106b3868287016105e4565b935050602084015167ffffffffffffffff8111156106d4576106d36104ac565b5b6106e0868287016105e4565b92505060406106f18682870161065b565b9150509250925092565b600081519050919050565b7f4e487b7100000000000000000000000000000000000000000000000000000000600052602260045260246000fd5b6000600282049050600182168061074d57607f821691505b6020821081036107605761075f610706565b5b50919050565b60008190508160005260206000209050919050565b60006020601f8301049050919050565b600082821b905092915050565b6000600883026107c87fffffffffffffffffffffffffffffffffffffffffffffffffffffffffffffffff8261078b565b6107d2868361078b565b95508019841693508086168417925050509392505050565b6000819050919050565b6000819050919050565b600061081961081461080f846107ea565b6107f4565b6107ea565b9050919050565b6000819050919050565b610833836107fe565b61084761083f82610820565b848454610798565b825550505050565b600090565b61085c61084f565b61086781848461082a565b505050565b5b8181101561088b57610880600082610854565b60018101905061086d565b5050565b601f8211156108d0576108a181610766565b6108aa8461077b565b810160208510156108b9578190505b6108cd6108c58561077b565b83018261086c565b50505b505050565b600082821c905092915050565b60006108f3600019846008026108d5565b1980831691505092915050565b600061090c83836108e2565b9150826002028217905092915050565b610925826106fb565b67ffffffffffffffff81111561093e5761093d6104cc565b5b6109488254610735565b61095382828561088f565b600060209050601f8311600181146109865760008415610974578287015190505b61097e8582610900565b8655506109e6565b601f19841661099486610766565b60005b828110156109bc57848901518255600182019150602085019450602081019050610997565b868310156109d957848901516109d5601f8916826108e2565b8355505b6001600288020188555050505b505050505050565b6109f781610632565b82525050565b6000602082019050610a1260008301846109ee565b92915050565b7f4e487b7100000000000000000000000000000000000000000000000000000000600052601160045260246000fd5b60008160011c9050919050565b6000808291508390505b6001851115610a9e57808604811115610a7a57610a79610a18565b5b6001851615610a895780820291505b8081029050610a9785610a47565b9450610a5e565b94509492505050565b600082610ab75760019050610b73565b81610ac55760009050610b73565b8160018114610adb5760028114610ae557610b14565b6001915050610b73565b60ff841115610af757610af6610a18565b5b8360020a915084821115610b0e57610b0d610a18565b5b50610b73565b5060208310610133831016604e8410600b8410161715610b495782820a905083811115610b4457610b43610a18565b5b610b73565b610b568484846001610a54565b92509050818404811115610b6d57610b6c610a18565b5b81810290505b9392505050565b6000610b85826107ea565b9150610b90836107ea565b9250610bbd7fffffffffffffffffffffffffffffffffffffffffffffffffffffffffffffffff8484610aa7565b905092915050565b6000610bd0826107ea565b9150610bdb836107ea565b9250828202610be9816107ea565b91508282048414831517610c0057610bff610a18565b5b5092915050565b6000610c12826107ea565b9150610c1d836107ea565b9250828201905080821115610c3557610c34610a18565b5b92915050565b610c44816107ea565b82525050565b6000606082019050610c5f60008301866109ee565b610c6c6020830185610c3b565b610c796040830184610c3b565b949350505050565b6000602082019050610c966000830184610c3b565b92915050565b61110c80610cab6000396000f3fe608060405234801561001057600080fd5b50600436106100cf5760003560e01c8063715018a61161008c57806395d89b411161006657806395d89b4114610204578063a9059cbb14610222578063dd62ed3e14610252578063f2fde38b14610282576100cf565b8063715018a6146101be5780637ec88933146101c85780638da5cb5b146101e6576100cf565b806306fdde03146100d4578063095ea7b3146100f257806318160ddd1461012257806323b872dd14610140578063313ce5671461017057806370a082311461018e575b600080fd5b6100dc61029e565b6040516100e99190610d60565b60405180910390f35b61010c60048036038101906101079190610e1b565b610330565b6040516101199190610e76565b60405180910390f35b61012a610353565b6040516101379190610ea0565b60405180910390f35b61015a60048036038101906101559190610ebb565b61035d565b6040516101679190610e76565b60405180910390f35b61017861038c565b6040516101859190610f2a565b60405180910390f35b6101a860048036038101906101a39190610f45565b610395565b6040516101b59190610ea0565b60405180910390f35b6101c66103dd565b005b6101d06103f1565b6040516101dd9190610ea0565b60405180910390f35b6101ee6103f8565b6040516101fb9190610f81565b60405180910390f35b61020c610422565b6040516102199190610d60565b60405180910390f35b61023c60048036038101906102379190610e1b565b6104b4565b6040516102499190610e76565b60405180910390f35b61026c60048036038101906102679190610f9c565b6104d7565b6040516102799190610ea0565b60405180910390f35b61029c60048036038101906102979190610f45565b61055e565b005b6060600380546102ad9061100b565b80601f01602080910402602001604051908101604052809291908181526020018280546102d99061100b565b80156103265780601f106102fb57610100808354040283529160200191610326565b820191906000526020600020905b81548152906001019060200180831161030957829003601f168201915b5050505050905090565b60008061033b6105e4565b90506103488185856105ec565b600191505092915050565b6000600254905090565b6000806103686105e4565b90506103758582856105fe565b610380858585610693565b60019150509392505050565b60006012905090565b60008060008373ffffffffffffffffffffffffffffffffffffffff1673ffffffffffffffffffffffffffffffffffffffff168152602001908152602001600020549050919050565b6103e5610787565b6103ef600061080e565b565b620186a081565b6000600560009054906101000a900473ffffffffffffffffffffffffffffffffffffffff16905090565b6060600480546104319061100b565b80601f016020809104026020016040519081016040528092919081815260200182805461045d9061100b565b80156104aa5780601f1061047f576101008083540402835291602001916104aa565b820191906000526020600020905b81548152906001019060200180831161048d57829003601f168201915b5050505050905090565b6000806104bf6105e4565b90506104cc818585610693565b600191505092915050565b6000600160008473ffffffffffffffffffffffffffffffffffffffff1673ffffffffffffffffffffffffffffffffffffffff16815260200190815260200160002060008373ffffffffffffffffffffffffffffffffffffffff1673ffffffffffffffffffffffffffffffffffffffff16815260200190815260200160002054905092915050565b610566610787565b600073ffffffffffffffffffffffffffffffffffffffff168173ffffffffffffffffffffffffffffffffffffffff16036105d85760006040517f1e4fbdf70000000000000000000000000000000000000000000000000000000081526004016105cf9190610f81565b60405180910390fd5b6105e18161080e565b50565b600033905090565b6105f983838360016108d4565b505050565b600061060a84846104d7565b90507fffffffffffffffffffffffffffffffffffffffffffffffffffffffffffffffff81101561068d578181101561067d578281836040517ffb8f41b20000000000000000000000000000000000000000000000000000000081526004016106749392919061103c565b60405180910390fd5b61068c848484840360006108d4565b5b50505050565b600073ffffffffffffffffffffffffffffffffffffffff168373ffffffffffffffffffffffffffffffffffffffff16036107055760006040517f96c6fd1e0000000000000000000000000000000000000000000000000000000081526004016106fc9190610f81565b60405180910390fd5b600073ffffffffffffffffffffffffffffffffffffffff168273ffffffffffffffffffffffffffffffffffffffff16036107775760006040517fec442f0500000000000000000000000000000000000000000000000000000000815260040161076e9190610f81565b60405180910390fd5b610782838383610aab565b505050565b61078f6105e4565b73ffffffffffffffffffffffffffffffffffffffff166107ad6103f8565b73ffffffffffffffffffffffffffffffffffffffff161461080c576107d06105e4565b6040517f118cdaa70000000000000000000000000000000000000000000000000000000081526004016108039190610f81565b60405180910390fd5b565b6000600560009054906101000a900473ffffffffffffffffffffffffffffffffffffffff16905081600560006101000a81548173ffffffffffffffffffffffffffffffffffffffff021916908373ffffffffffffffffffffffffffffffffffffffff1602179055508173ffffffffffffffffffffffffffffffffffffffff168173ffffffffffffffffffffffffffffffffffffffff167f8be0079c531659141344cd1fd0a4f28419497f9722a3daafe3b4186f6b6457e060405160405180910390a35050565b600073ffffffffffffffffffffffffffffffffffffffff168473ffffffffffffffffffffffffffffffffffffffff16036109465760006040517fe602df0500000000000000000000000000000000000000000000000000000000815260040161093d9190610f81565b60405180910390fd5b600073ffffffffffffffffffffffffffffffffffffffff168373ffffffffffffffffffffffffffffffffffffffff16036109b85760006040517f94280d620000000000000000000000000000000000000000000000000000000081526004016109af9190610f81565b60405180910390fd5b81600160008673ffffffffffffffffffffffffffffffffffffffff1673ffffffffffffffffffffffffffffffffffffffff16815260200190815260200160002060008573ffffffffffffffffffffffffffffffffffffffff1673ffffffffffffffffffffffffffffffffffffffff168152602001908152602001600020819055508015610aa5578273ffffffffffffffffffffffffffffffffffffffff168473ffffffffffffffffffffffffffffffffffffffff167f8c5be1e5ebec7d5bd14f71427d1e84f3dd0314c0f7b2291e5b200ac8c7c3b92584604051610a9c9190610ea0565b60405180910390a35b50505050565b600073ffffffffffffffffffffffffffffffffffffffff168373ffffffffffffffffffffffffffffffffffffffff1603610afd578060026000828254610af191906110a2565b92505081905550610bd0565b60008060008573ffffffffffffffffffffffffffffffffffffffff1673ffffffffffffffffffffffffffffffffffffffff16815260200190815260200160002054905081811015610b89578381836040517fe450d38c000000000000000000000000000000000000000000000000000000008152600401610b809392919061103c565b60405180910390fd5b8181036000808673ffffffffffffffffffffffffffffffffffffffff1673ffffffffffffffffffffffffffffffffffffffff16815260200190815260200160002081905550505b600073ffffffffffffffffffffffffffffffffffffffff168273ffffffffffffffffffffffffffffffffffffffff1603610c195780600260008282540392505081905550610c66565b806000808473ffffffffffffffffffffffffffffffffffffffff1673ffffffffffffffffffffffffffffffffffffffff168152602001908152602001600020600082825401925050819055505b8173ffffffffffffffffffffffffffffffffffffffff168373ffffffffffffffffffffffffffffffffffffffff167fddf252ad1be2c89b69c2b068fc378daa952ba7f163c4a11628f55a4df523b3ef83604051610cc39190610ea0565b60405180910390a3505050565b600081519050919050565b600082825260208201905092915050565b60005b83811015610d0a578082015181840152602081019050610cef565b60008484015250505050565b6000601f19601f8301169050919050565b6000610d3282610cd0565b610d3c8185610cdb565b9350610d4c818560208601610cec565b610d5581610d16565b840191505092915050565b60006020820190508181036000830152610d7a8184610d27565b905092915050565b600080fd5b600073ffffffffffffffffffffffffffffffffffffffff82169050919050565b6000610db282610d87565b9050919050565b610dc281610da7565b8114610dcd57600080fd5b50565b600081359050610ddf81610db9565b92915050565b6000819050919050565b610df881610de5565b8114610e0357600080fd5b50565b600081359050610e1581610def565b92915050565b60008060408385031215610e3257610e31610d82565b5b6000610e4085828601610dd0565b9250506020610e5185828601610e06565b9150509250929050565b60008115159050919050565b610e7081610e5b565b82525050565b6000602082019050610e8b6000830184610e67565b92915050565b610e9a81610de5565b82525050565b6000602082019050610eb56000830184610e91565b92915050565b600080600060608486031215610ed457610ed3610d82565b5b6000610ee286828701610dd0565b9350506020610ef386828701610dd0565b9250506040610f0486828701610e06565b9150509250925092565b600060ff82169050919050565b610f2481610f0e565b82525050565b6000602082019050610f3f6000830184610f1b565b92915050565b600060208284031215610f5b57610f5a610d82565b5b6000610f6984828501610dd0565b91505092915050565b610f7b81610da7565b82525050565b6000602082019050610f966000830184610f72565b92915050565b60008060408385031215610fb357610fb2610d82565b5b6000610fc185828601610dd0565b9250506020610fd285828601610dd0565b9150509250929050565b7f4e487b7100000000000000000000000000000000000000000000000000000000600052602260045260246000fd5b6000600282049050600182168061102357607f821691505b60208210810361103657611035610fdc565b5b50919050565b60006060820190506110516000830186610f72565b61105e6020830185610e91565b61106b6040830184610e91565b949350505050565b7f4e487b7100000000000000000000000000000000000000000000000000000000600052601160045260246000fd5b60006110ad82610de5565b91506110b883610de5565b92508282019050808211156110d0576110cf611073565b5b9291505056fea264697066735822122086203cbb8642d8dea5994e5ef50ccfcf5d99d49f35f2ce8de63dcd01d1edc87764736f6c634300081a0033",
  "linkReferences": {},
  "deployedLinkReferences": {}
}